:020000040800F2
:10000000801D002011020008B30F0008250F000812
:10001000AF0F000853050008452900080000000044
:10002000000000000000000000000000B11F0008F8
:10003000410800080000000025100008D121000838
:100040002B0200082B0200082B0200082B020008DC
:100050002B0200082B0200082B020008A50800084C
:100060002B0200082B0200082B0200082B020008BC
:10007000790700082B0200082B0200082B02000859
:100080002B0200082B0200082B0200082B0200089C
:100090002B0200082B0200082B0200082B0200088C
:1000A0002B0200082B0200082B0200082B0200087C
:1000B000352200082B020008A52200082B020008A8
:1000C0002B0200082B0200082B0200082B0200085C
:1000D0002B020008C526000805280008392800085A
:1000E0002B0200082B0200082B0200082B0200083C
:1000F0002B0200082B0200082B0200082B0200082C
:100100002B0200082B0200082B0200082B0200081B
:100110002B0200082B0200082B0200082B0200080B
:100120002B0200082B0200082B0200082B020008FB
:1001300000F002F800F05CF80AA090E8000C82449D
:100140008344AAF10107DA4501D100F051F8AFF27A
:10015000090EBAE80F0013F0010F18BFFB1A43F0A5
:1001600001031847745F0000945F00000A444FF0D9
:10017000000C10F8013B13F0070408BF10F8014B06
:100180001D1108BF10F8015B641E05D010F8016B4B
:10019000641E01F8016BF9D113F0080F1EBF10F8AF
:1001A000014BAD1C0C1B09D16D1E58BF01F801CBD2
:1001B000FAD505E014F8016B01F8016B6D1EF9D555
:1001C0009142D6D37047000000230024002500266A
:1001D000103A28BF78C1FBD8520728BF30C148BFAA
:1001E0000B607047002070471FB51FBD10B510BDD4
:1001F00000F0F4F81146FFF7F7FF04F053F900F0B0
:1002000012F903B4FFF7F2FF03BC02F0D1FE0000C5
:100210000948804709480047FEE7FEE7FEE7FEE79A
:10022000FEE7FEE7FEE7FEE7FEE7FEE704480549D6
:10023000054A064B70470000D5210008310100082F
:1002400080170020801D00208019002080190020C8
:10025000704700000FB41CB5074B06AA7B446946E3
:100260000090059800F099F80020694600F0A8F881
:100270001CBC5DF814FB0000610100002DE9F04199
:100280000E460446002020622046E168884730B3CD
:10029000252805D0D4E901219047206A401CF2E7C7
:1002A000E168204600278847050018D0A5F14100E5
:1002B000192802D820354FF40067324629462046D7
:1002C0002760FFF78FFF40B1012804D0F61D26F00C
:1002D00007060836D8E7361DD6E72846DAE7206A4B
:1002E000BDE8F08110B5431C02E010F8011B71B1AC
:1002F0008107FAD14FF0013202C88C1A8C4314EAFC
:10030000C211F9D0C01A0A0603D0C01E10BDC01A0F
:1003100010BD0A0401D0801E10BD0902FCD0401E91
:1003200010BD4FF0000200B51346944696462039A2
:1003300022BFA0E80C50A0E80C50B1F12001BFF49E
:10034000F7AF090728BFA0E80C5048BF0CC05DF804
:1003500004EB890028BF40F8042B08BF704748BF52
:1003600020F8022B11F0804F18BF00F8012B7047C6
:10037000704770477047704710B500F027F8006865
:1003800010BD10B5044600F021F8046010BD000057
:1003900001694A1C02610878704700B58FB0CDE949
:1003A00001310021059105497944CDE90310114639
:1003B0006846FFF763FF0FB000BD0000E5FFFFFFD9
:1003C0000A6802F8010B0A60704700000048704795
:1003D0002017002000487047201700207546FFF7BF
:1003E000F9FFAE4605006946534620F007008546F2
:1003F00018B020B5FFF71AFFBDE820404FF0000607
:100400004FF000074FF000084FF0000B21F00701FC
:10041000AC46ACE8C009ACE8C009ACE8C009ACE83F
:10042000C0098D4670470446AFF300802046FFF7B1
:10043000E8FE10B50E2002F001FE0446A4F16400AF
:1004400081B24FF4FA720E2002F067FE4FF4FA7098
:1004500003F0D6F810BD70B50E2002F0EFFD044693
:10046000142003F0CDF80F2002F0E8FD054614201B
:1004700003F0C6F804F1640081B24FF4FA720E2062
:1004800002F04BFEA5F1640081B24FF4FA720F2026
:1004900002F043FE4FF4FA7003F0B2F870BD70B58D
:1004A0000E2002F0CBFD0446142003F0A9F80F2023
:1004B00002F0C4FD0546142003F0A2F8A4F1640084
:1004C00081B24FF4FA720E2002F027FE05F16400AB
:1004D00081B24FF4FA720F2002F01FFE4FF4FA704F
:1004E00003F08EF870BD10B50D2002F0A7FD044694
:1004F000A4F1640081B24FF4FA720D2002F00DFEF7
:100500004FF4FA7003F07CF810BD10B50D2002F026
:1005100095FD044604F1640081B24FF4FA720D2097
:1005200002F0FBFD4FF4FA7003F06AF810BD10B54D
:100530000E2002F083FD044604F1640081B24FF402
:10054000FA720E2002F0E9FD4FF4FA7003F058F849
:1005500010BD00BFFEE770B500254FF4803400E009
:10056000641E24B1802000F0C9FE0028F8D014B920
:100570000325284670BD40F2FF5000F07DFE28465E
:10058000F8E70000014600BF0748406B00F0450057
:100590000028F9D040F2FF50034A906310464069AA
:1005A00008221040C0B270470080014070B500259D
:1005B0001048446B01E00F48446B04F045000028EC
:1005C000F9D004F0040028B10325042000F054FE03
:1005D000284670BD04F0010028B10125012000F07B
:1005E0004BFE2846F5E740F2FF5000F045FE284656
:1005F000EFE700000080014070B500250B48446B18
:1006000001E00A48446B04F045000028F9D004F0EA
:10061000040028B10325042000F02EFE284670BDFA
:1006200040F2FF5000F028FE2846F8E70080014025
:100630002DE9F04106460F464FF000082248456B71
:1006400001E02148456B05F045000028F9D005F090
:10065000040038B14FF00308042000F00DFE4046BE
:10066000BDE8F08105F0010030B14FF00108012034
:1006700000F002FE4046F3E700F03AFEB04203D03D
:100680004FF010084046EBE740F2FF5000F0F4FD59
:10069000002000F047FE044604F4604018B9200C26
:1006A00038804046DCE704F4005008B11320D7E757
:1006B00004F4804008B11020D2E704F4004008B1EF
:1006C0000F20CDE74046CBE70080014070B5002603
:1006D0004FF480350F48446B02E06D1E0D48446BAB
:1006E00004F0450008B9002DF7D115B104F004005D
:1006F00028B10326042000F0BFFD304670BD04F091
:10070000400028B10026402000F0B6FD3046F5E755
:100710003046F3E70080014010B54FF4FA62144907
:100720000C2002F047FC4FF4FA7002F069FF4FF41E
:10073000FA7002F065FF4FF4FA7002F061FF4FF4B7
:100740007A720C490C2002F035FC4FF4FA7002F07A
:1007500057FF4FF4FA7002F053FF4FF4FA62044966
:100760000C2002F027FC4FF4FA7002F049FF10BD94
:100770008C000020DA0300200848406840F0100098
:10078000064948600846C0694FF6FE7108400349B3
:10079000C861002002490870704700000000024054
:1007A0008000002000F0805111B10349086001E091
:1007B0000249486070470000040402400000024003
:1007C00021B1026842F00102026004E002684FF6C3
:1007D000FE731A400260704701460020002201F0BB
:1007E000805313B1054B1A6801E0054B1A6802EA01
:1007F00001030BB1012000E000207047000402401B
:100800000000024010B50022026847F6F0739A43D8
:100810000C6A8B6823430C6923434C6923438C691E
:100820002343CC6923434C6A23438C6A23431A43F2
:100830000260CB6843600B6883604B68C36010BD87
:100840007047000010B54FF4FA6214490C2002F012
:10085000B1FB4FF4FA7002F0D3FE4FF4FA7002F0DD
:10086000CFFE4FF4FA7002F0CBFE4FF47A720C49CF
:100870000C2002F09FFB4FF4FA7002F0C1FE4FF41F
:10088000FA7002F0BDFE4FF4FA6204490C2002F047
:1008900091FB4FF4FA7002F0B3FE10BD8C00002003
:1008A000F20300200EB511A207CA8DE80700002050
:1008B00011490860322002F0A3FE01200F49C1F85F
:1008C00098010E200E49087169460D48401DFFF73A
:1008D000C1FC6846FFF706FD094948800120094927
:1008E0000870022000F02EF80EBD00006D6F7975C3
:1008F000312E302E6F647200A4812142000021420B
:10090000140C0020240400201CB50121084600F02E
:10091000ABFB0121022000F0BDF902200090002075
:100920008DF804000C208DF8050001208DF80600DC
:10093000684600F00DF8024800F03CFB1CBD0000CA
:10094000480000200149086070470000140401407D
:10095000002123498279002A3AD00A4612680368A6
:100960009A430B461A600A1D126803689A430B1DCE
:100970001A60027911440A6803681A430A60184A27
:100980000832126803689A43154B08331A601A1D1F
:10099000126803689A43124B0C331A604279102A8A
:1009A0000ED11A1F126803681A430D4B08331A60E0
:1009B0001A1D126803681A43094B0C331A600DE0C4
:1009C0000749427911440A6803681A430A6005E03E
:1009D000027911440A6803689A430A60704700006C
:1009E0000004014010B5044623480078012821D1B5
:1009F000082C1DD2DFE804F01C04070A0F141C1990
:100A0000FFF78AFE15E0FFF71DFF12E01B480068A4
:100A100001F024FD0DE01948006801F0B9FD08E07F
:100A20001648006800F0E4F903E001F037FB00E04D
:100A300000BF1FE010480078E0B90A2C18D2DFE8A8
:100A400004F01705080B0E1717171114FFF76FFDA9
:100A50000FE0FFF7EEFC0CE0FFF745FD09E0FFF7C4
:100A600054FD06E0FFF71BFD03E0FFF7F4FC00E098
:100A700000BF00BF10BD00000C04002010040020C7
:100A800010B58CB000201549087000F009FF012254
:100A900013A1144803F022F913A1684603F04CF99E
:100AA0000446052C04D110A003F069F8044603E0C5
:100AB000684603F058F804460DA1684603F03CF977
:100AC0000446052C04D10AA003F059F8044603E0BB
:100AD000684603F048F804460CB010BD300400200E
:100AE0002F000000100E00202F416374696F6E000C
:100AF0002F4F7264657200002DE9FC4107460D46D8
:100B00000026002400200090019008205D49086024
:100B100010204860402088600020C8604FF480604A
:100B20000861084600F038FC1020FFF72BFD044652
:100B300014B12046BDE8FC815348008800045149A7
:100B4000086037204860402088600020C8604FF46B
:100B500080600861084600F01FFC3720FFF712FD97
:100B600004460CB12046E5E74FF0FF3047490860E6
:100B700008204860302088600220C860002008619A
:100B800001204861084600F089FB00203D490860CB
:100B900033204860402088600020C8604FF48060A7
:100BA0000861084600F0F8FB3320FFF7EBFC044631
:100BB0000CB12046BEE70CE04FF4001000F09EFBA5
:100BC00038B100F0E3FB4DF82600761C012E00D969
:100BD00006E02F48406B40F22A6108400028EBD025
:100BE00000BF082000F08AFB28B1082000F044FB79
:100BF000042420469EE7022000F080FB28B102205A
:100C000000F03AFB0224204694E7202000F076FB17
:100C100028B1202000F030FB062420468AE74FF45C
:100C2000007000F06BFB30B14FF4007000F024FB5B
:100C3000072420467EE740F2FF5000F01DFB00989D
:100C40000006009901F47F4140EA0120009901F477
:100C50007F0140EA1120009940EA11606860019824
:100C60000006019901F47F4140EA0120019901F455
:100C70007F0140EA1120019940EA11602860204676
:100C800058E70000E809002070000020FC0900205F
:100C90000080014030B500228B071C0F0F2303FAA0
:100CA00004F20B4B8C1053F824309343084C8D10F6
:100CB00044F8253023468C1053F824308C07240F39
:100CC00000FA04F42343024C8D1044F8253030BD63
:100CD000080001402DE9F0410246002500260020D1
:100CE00000230024002791F803C00CF00F0591F8B1
:100CF00003C00CF0100CBCF1000F03D091F802C03F
:100D00004CEA050591F800C0BCF1000F31D0146821
:100D100000202BE04FF0010C0CFA00F3B1F800C0FA
:100D20000CEA03069E4220D183004FF00F0C0CFA10
:100D300003F7BC4305FA03FC4CEA040491F803C032
:100D4000BCF1280F06D14FF0010C0CFA00FCC2F8E0
:100D500014C00AE091F803C0BCF1480F05D14FF070
:100D6000010C0CFA00FCC2F810C0401C0828D1D3BA
:100D70001460B1F800C0BCF1FF0F34DD54680020EE
:100D80002EE000F1080C4FF0010808FA0CF3B1F85E
:100D900000C00CEA03069E4221D183004FF00F0CE5
:100DA0000CFA03F7BC4305FA03FC4CEA040491F87F
:100DB00003C0BCF1280F05D100F1080C08FA0CF8AB
:100DC000C2F8148091F803C0BCF1480F07D100F1BC
:100DD000080C4FF0010808FA0CF8C2F81080401C0B
:100DE0000828CED35460BDE8F0810161704700004F
:100DF0002DE9F04F97B083460020039082460120F2
:100E000002907FE042480078012803D10020404949
:100E1000087078E05846039904F036FC03904FF0D0
:100E2000000A29E0504604F0B1FC0546594604F09A
:100E3000C1FC0446039904F027FC0AA941F82A00E2
:100E400051F82A0004F0F4FBCDE9000103F0DCFCCA
:100E5000804600222F4B04F0C1F9064600222E4B9B
:100E600003F012FF044603F0DDFE0AA941F82A0050
:100E70000AF1010000F0FF0ABAF1060FD2DB4FF0D1
:100E8000060A12E0AAF106010AAA52F82100234933
:100E900004F066FD0446224904F058FD0AA941F811
:100EA0002A000AF1010000F0FF0ABAF10C0FE9DB99
:100EB0004FF0000A0BE00AA951F82A0004F046FCA2
:100EC00004A921F81A000AF1010000F0FF0ABAF1A2
:100ED0000C0FF0DB029801280CD14FF47A7204A9B0
:100EE0000C2002F067F84FF47A7002F089FB0020C2
:100EF000029004E0642204A90C2002F05BF8642054
:100F000002F07EFB7EE700BF17B0BDE8F08F000067
:100F1000140400200000694000407F400000964318
:100F200000002F4400BFFEE708B50121082000F0B3
:100F30009BF84FF40070ADF8000010208DF803000E
:100F400003208DF8020069460E48FFF7C3FE4FF4F8
:100F500000710C48FFF749FF0121042000F084F8DC
:100F60004020ADF8000010208DF8030003208DF81C
:100F7000020069460448FFF7ADFE40210248FFF732
:100F800034FF08BD000C014000080140014600226A
:100F9000022004E00B5C13449AB2431CD8B2CB7815
:100FA0009B1C8342F6DCD3439AB2D0B2704700BF99
:100FB000FEE7704770B5002100230F22C47804B308
:100FC000154C246804F4E064C4F5E064210AC1F11E
:100FD0000403CA40447804FA03F18478144021439E
:100FE00009010E4C0678A155047804F01F05012470
:100FF000AC4005786D11AD0005F1E025C5F8004164
:1010000009E0047804F01F050124AC40044D067883
:10101000761145F8264070BD0CED00E000E400E0DC
:1010200080E100E07047000029B1064A526902439E
:10103000044B5A6104E0034A52698243014B5A61EE
:10104000704700000010024029B1064AD2690243ED
:10105000044BDA6104E0034AD2698243014BDA614E
:10106000704700000010024029B1064A926902430D
:10107000044B9A6104E0034A92698243014B9A61EE
:10108000704700000010024030B50021002200240B
:1010900000232D4D6D6805F00C0121B1042905D008
:1010A000082923D105E0294D056022E0274D056080
:1010B0001FE0254D6D6805F47012234D6D6805F431
:1010C0008034022505EB92421CB9214D5543056041
:1010D0000BE01D4D6D6805F400351DB11C4D5543E9
:1010E000056002E0194D5543056002E0174D0560AB
:1010F00000BF00BF144D6D6805F0F0010909154DE2
:101100006B5C0568DD4045600F4D6D6805F4E0617E
:10111000090A104D6B5C4568DD4085600A4D6D68BD
:1011200005F46051C90A0B4D6B5C4568DD40C56034
:10113000054D6D6805F44041890B074D6B5CC56832
:10114000B5FBF3F5056130BD0010024000127A00D6
:1011500000093D0018000020280000207CB505464D
:10116000002400200090019000F0DCF800F00070F6
:1011700010B10E2420467CBD3D49098888B26946DD
:10118000FFF7BAFC04460CB12046F4E7012D36D136
:10119000019800F4802000282ED0354800880004F3
:1011A0003449086037204860402088600020C860CB
:1011B000A8020861084600F0EFF83720FFF7E2F9CF
:1011C00004460CB12046D6E702202A4908600620D2
:1011D0004860402088600020C8604FF4806008614B
:1011E000084600F0D9F80620FFF7CCF904460CB108
:1011F0002046C0E72046BEE725242046BBE70198ED
:1012000000F4803078B31A48008800041949086057
:1012100037204860402088600020C8604FF480601C
:101220000861084600F0B8F83720FFF7ABF904462C
:101230000CB120469FE700200E4908600620486058
:10124000402088600020C8604FF480600861084634
:1012500000F0A2F80620FFF795F904460CB12046ED
:1012600089E7204687E7FFE72524204683E700003B
:1012700070000020E80900200149886370470000E1
:10128000008001400149086070470000A000304222
:1012900001490860704700008C05304200210A4B6C
:1012A00002685A6242689A621A46D16A21F0F701CE
:1012B000D0E902231A4303691A4343691A431143CD
:1012C000014AD162704700000080014000200649B9
:1012D000086048608860C86048628862C8620348E5
:1012E00088630020C863704700800140FF07C0008A
:1012F00001480069C0B270470080014001460020EB
:10130000034A526B0A400AB1012000E000207047F6
:10131000008001400248006800F0030070470000B0
:101320000080014008B501460020009002480844B2
:1013300000900098006808BD1480014029B1064A59
:10134000D26B0243044BDA6304E0034AD26B82435C
:10135000014BDA63704700000080014000210A4A17
:10136000516847F6FF629143027D83681A434368E0
:101370001A43C3681A4303681A4303691A431143A3
:10138000014A516070470000008001400148006838
:1013900070470000808001400021094B02689A607C
:1013A0001A46D1686FF30A01D0E901231A43C368D2
:1013B0001A4303691A431143014AD1607047000080
:1013C000008001400549096821F00301034A1160CA
:1013D0001146096801431160704700000080014018
:1013E00010B50248FFF7F8F910BD0000002000100A
:1013F00030B58BB005460C461348FFF7D3F90021F2
:101400001248FFF7DDF91248009001950020029084
:10141000A008039000200490802005908000069092
:1014200080000790002008904FF4005009900020A1
:101430000A9069460548FFF7E5F901210348FFF7DF
:10144000BFF90BB030BD000000F0001044040240B2
:101450008080014030B58BB005460C461348FFF73D
:10146000A1F900211248FFF7ABF91248009001954D
:1014700010200290A0080390002004908020059086
:101480008000069080000790002008904FF40050E4
:10149000099000200A9069460548FFF7B3F9012139
:1014A0000348FFF78DF90BB030BD000000F00010CD
:1014B000440402408080014070B504460025214864
:1014C0000068032802D12725284670BD1D48006802
:1014D00038B11C480068012803D01A480068022867
:1014E0002ED1B4F5805F02D127252846EDE7B4F56B
:1014F000006F14D10120FFF731FE054605BB012026
:101500001149087500200860486088604FF4006049
:10151000C860002008610846FFF720FF10E00020A7
:10152000FFF71CFE05465DB901200749087500203C
:10153000086048608860C86008610846FFF70EFFD1
:101540002846C2E76C000020D009002008B5012120
:101550003020FFF789FD4FF4F850ADF8000003206C
:101560008DF8020018208DF8030069460948FFF73E
:10157000B1FB0420ADF8000069460748FFF7AAFB5D
:1015800001218802FFF750FD01210220FFF74CFDE9
:1015900008BD0000001001400014014030B50146B4
:1015A00000200022AC4B1B7881F84E30AB4B1B88DF
:1015B000A1F84C30AA4B1B681A0E93090B70C2F3AA
:1015C00083034B7002F003038B70A54B1B68C3F3BE
:1015D0000742CA70A24B1B88C3F307220A71A04BB3
:1015E0001A784A715B681A0E1301CB809C4B5B68BA
:1015F000C3F30742CB8843EA1213CB8002F00F03F8
:101600000B72974B9B88C3F30722D3094B72C2F32B
:1016100080138B72C2F34013CB72C2F300130B73AF
:1016200000234B738C4B1B681BB18B4B1B68012B2E
:101630003CD193071B0D0B61894B1A790B6943EA67
:1016400082030B61864B9B681A0E0B6943EA921367
:101650000B61C2F3C2030B7502F007034B75804B9D
:101660009B68C3F3074253098B75C2F38203CB75A2
:1016700093075B0F0B767A4B1B89C3F307220B7E14
:1016800043EAD2130B760B695B1C4B640C7E4B6CEC
:10169000A41C0125A5406B434B640C7A0123A34095
:1016A0008B64D1E9113463434B6421E06A4B1B68BE
:1016B000022B1DD16A4B1A7993069B0A0B61684B6A
:1016C0009B681A0E0B6943EA02230B61644B9B680B
:1016D000C3F307420B6913430B61614B1B89C3F3CF
:1016E00007220B695B1CDB044B644FF400738B64B3
:1016F000C2F3801301F8193F93065B0E4B70584BF1
:101700001A7A4B7843EAD2134B7002F07F038B7046
:10171000534BDB681A0ED309CB70C2F341130B7124
:10172000C2F382034B7193071B0F8B714C4BDB6829
:10173000C3F307428B7943EA92138B71C2F34013D0
:10174000CB7100230B7202F001034B72444B9B8957
:10175000C3F30722D3098B72C2F38013CB72C2F397
:1017600040130B73C2F300134B73C2F381038B73EB
:1017700002F00303CB733A4B1A7B53080B7401231B
:101780004B74384B1B681A0ECA741939354B1B68D9
:10179000C3F307421402CC85324B1B88C3F30722E4
:1017A000CB8D1343CB852F4B1A7814060C635B68E3
:1017B0001A0E0B6B43EA02440C632A4B5B68C3F3BB
:1017C00007420B6B43EA02240C63264B9B88C3F34E
:1017D00007220B6B13430B63224B1A7934235A54A1
:1017E000204B9B681A0E35235A541E4B9B68C3F33B
:1017F000074214068C631B4B1B89C3F307228B6BB8
:1018000043EA02448C63174B1A7A8B6B43EA022437
:101810008C63144BDB681A0E8B6B13438B63114B79
:10182000DB68C3F307423C235B5C43EA12143C23AE
:101830005C5413071C0DCC870A4B9B89C3F307220A
:10184000CB8F1343CB87074B1A7B540840235C5440
:10185000012441235C5430BD6C0000207000002046
:10186000500900206009002008B50020009068465B
:1018700000F038FA08B1FF2008BD0098C0F34320FB
:10188000FAE710B50424FFF7EFFF0446042C01D15A
:10189000002010BDFF2C01D10220FAE70120F8E75B
:1018A00010B50024FFF752FEFFF710FD00F0CEF850
:1018B00004460CB1204610BD00F02AF804460CB1D5
:1018C0002046F8E7012010490875002008604860AC
:1018D0008860C86008610846FFF740FD1CB90B48E6
:1018E000FFF75CFE044634B90849B1F84C1008040F
:1018F00000F0DEF9044624B94FF40060FFF7DCFD88
:1019000004462046D7E70000D009002080090020C7
:1019100038B5002401200090FFF7FCFC10B9252405
:10192000204638BD44480068042828D00020434998
:10193000086002204860C02088600020C8604FF422
:10194000806008610846FFF727FDFEF72FFE04467A
:101950000CB12046E5E70020FFF7E4FC38490860B9
:101960000420FFF7DFFC364948600820FFF7DAFC67
:10197000334988600C20FFF7D5FC3149C8602E48F8
:10198000006858B12C480068012807D02A48006830
:10199000062803D028480068022816D100202749CD
:1019A000086003204860402088600020C8604FF431
:1019B000806008610846FFF7EFFC69460320FEF7E8
:1019C00037FE04460CB12046ABE71B4800680428EC
:1019D0002ED0BDF800001B490860BDF800000004CF
:1019E0001649086009204860C02088600020C8604F
:1019F0004FF4806008610846FFF7CEFCFEF7D6FD85
:101A000004460CB120468CE70020FFF78BFC0E4902
:101A100008600420FFF786FC0B4948600820FFF7A8
:101A200081FC094988600C20FFF77CFC0649C860EE
:101A30000024204675E700006C000020E809002023
:101A40006009002070000020500900202DE9F041BD
:101A50000024002600250027A046B2205949087519
:101A60000020086048608860C86008610846FFF789
:101A700075FC0320FFF7A6FC0120FFF703FC002004
:101A80005149086048608860C8604FF48060086110
:101A90000846FFF781FCFEF75EFD044614B12046C0
:101AA000BDE8F0814FF4D5704749086008204860D0
:101AB000402088600020C8604FF4806008610846BC
:101AC000FFF76AFCFEF702FE04462CB901203F49ED
:101AD00008604FF0804812E000203B490860372042
:101AE0004860402088600020C8604FF48060086132
:101AF0000846FFF751FC3720FEF744FD044600205E
:101B00003149086037204860402088600020C86064
:101B10004FF4806008610846FFF73EFC3720FEF76F
:101B200031FD0446002C4AD136E0002026490860E9
:101B300037204860402088600020C8604FF48060F3
:101B400008610846FFF728FC3720FEF71BFD044616
:101B50000CB12046A4E71E4848EA00001A49086074
:101B600029204860402088600020C8604FF48060D1
:101B700008610846FFF710FCFEF73EFD04460CB175
:101B800020468DE70020FFF7CDFB0646012080EAC6
:101B9000D67080F001076D1C1FB94FF6FF708542AB
:101BA000C3D34FF6FF70854202D31B24204677E74C
:101BB00006F08040060002D002200449086020465A
:101BC0006EE70000D0090020E80900206C0000202A
:101BD000000010802DE9F04107460D46144600260E
:101BE00000202C4908702C4908602C4908602C49B9
:101BF000C8622C480068022801D104026D0A2A48F4
:101C00000460102028494860402088600020C86097
:101C10004FF4806008610846FFF7BEFB1020FEF716
:101C2000B1FC064616B13046BDE8F0814FF0FF30FA
:101C30001E49086008464460902088600220C86001
:101C400000200861012048610846FFF727FB16487D
:101C50000560112014494860402088600020C86059
:101C60004FF4806008610846FFF796FB1120FEF7ED
:101C700089FC06460EB13046D6E701210802FFF77F
:101C80005DFB0120FFF704FB21463846FFF7B0FB60
:101C90003046C9E7780000207C0000207400002056
:101CA000008001406C000020E8090020FC090020B1
:101CB00070B5044600250A480460072008494860BA
:101CC000402088600020C8604FF4806008610846AA
:101CD000FFF762FB0720FEF755FC0546284670BD5E
:101CE000E809002070B5044600250A480088000471
:101CF0000949886040F24D40C8600D20FEF742FC63
:101D000005460DB1284670BD03484069206028464D
:101D1000F9E70000700000200080014010B50024A9
:101D200000BFFFF75DFB30B90748006818B90748E6
:101D300000780028F5D00548007810B103480078F5
:101D400010BD2046FCE700007C0000207800002049
:101D500010B5002400BFFFF743FB30B90948006805
:101D600018B9094800780028F5D00748007810B164
:101D70000548007810BD40F2FF50FFF77DFA20467D
:101D8000F8E700007C000020780000202DE9F041F9
:101D900007460D461446002600202C4908702C49A1
:101DA00008602C4908602C49C8622C480068022849
:101DB00001D104026D0A2A480460102028494860B5
:101DC000402088600020C8604FF4806008610846A9
:101DD000FFF7E2FA1020FEF7D5FB064616B13046B3
:101DE000BDE8F0811E48056018201D49486040206C
:101DF00088600020C8604FF4806008610846FFF7E3
:101E0000CBFA1820FEF7BEFB06460EB13046E7E7D8
:101E10004FF0FF3013490860084644609020886006
:101E20000020C8600861012048610846FFF736FAC3
:101E300001210802FFF782FA21463846FFF70AFB24
:101E40000120FFF725FA3046CAE70000780000209D
:101E50007C00002074000020008001406C00002005
:101E6000E8090020FC0900202DE9F84380460F46D0
:101E700015461E460024002000904549087045493B
:101E8000086001204449086000204449C862444871
:101E90000068022801D105027F0A4248056010202F
:101EA00040494860402088600020C8604FF480604E
:101EB00008610846FFF770FA1020FEF763FB04463E
:101EC00014B12046BDE8F88337480088000435493E
:101ED000086037204860402088600020C8604FF4C8
:101EE000806008610846FFF757FA3720FEF74AFB83
:101EF00004460CB12046E5E72A4806601720294928
:101F00004860402088600020C8604FF4806008610D
:101F10000846FFF741FA1720FEF734FB04460CB1E0
:101F20002046CFE71F48076019201E49486040201F
:101F300088600020C8604FF4806008610846FFF7A1
:101F40002BFA1920FEF71EFB04460CB12046B9E718
:101F50004FF0FF301549086006FB05F048609020FF
:101F600088600020C8600861012048610846FFF7CA
:101F700095F901210802FFF7E1F90120FFF788F93F
:101F800006FB05F14046FFF765FA20469AE7000098
:101F9000780000207C0000207400002000800140B8
:101FA0006C000020E809002070000020FC090020DF
:101FB000704710B500F002F810BD00000CB500200D
:101FC000019000903348006840F480303149086047
:101FD00000BF3048006800F4003000900198401CB9
:101FE0000190009818B90198B0F5A06FF1D1294877
:101FF000006800F4003010B10120009001E00020E2
:1020000000900098012843D12348006840F0100058
:10201000214908600846006820F00300086008466F
:10202000006840F0020008601A484068194948609A
:102030000846406848600846406840F48060486050
:102040000846406820F47C1048600846406840F428
:10205000E81048600846006840F08070086000BFE3
:102060000C48006800F000700028F9D0094840686A
:1020700020F00300074948600846406840F002002D
:10208000486000BF0348406800F00C000828F9D100
:102090000CBD0000001002400020024010B54FF4BB
:1020A0007A7202490C2000F085FF10BDF203002077
:1020B0002DE9F0411648006803F0BAFA0646154AC1
:1020C000154B03F0CBF9044602F0ACFD1049086053
:1020D0000846006803F0ACFA04464FF033320F4B69
:1020E00003F040F803D20E48094908600DE00848A3
:1020F000006803F09DFA04464FF03332094B03F0B9
:102100006BF902D2084802490860BDE8F08100007E
:10211000100400209A9999999999A93F3333D33F94
:102120009A99993E3333E33F9A99193F2DE9F0414B
:102130001648006803F07CFA0646154A154B02F073
:10214000A3FD044602F06EFD1049086008460068D1
:1021500003F06EFA04464FF033320F4B03F002F8EF
:1021600003D20E48094908600DE00848006803F0F2
:102170005FFA04464FF03332094B03F02DF902D2D7
:10218000084802490860BDE8F08100001004002002
:102190009A9999999999A93F3333D33F9A99993E3E
:1021A0003333E33F9A99193F042808D14FF0E021D7
:1021B000096941F004014FF0E022116107E04FF09E
:1021C000E021096921F004014FF0E022116170471C
:1021D0007047000010B51348006840F00100114935
:1021E000086008464068104908400E4948600846A3
:1021F00000680E4908400B4908600846006820F452
:10220000802008600846406820F4FE0048604FF4D3
:102210001F008860FFF7CDFE4FF0006004490860A2
:1022200010BD0000001002400000FFF8FFFFF6FEA6
:1022300008ED00E010B50121880700F0A2F840B1D8
:102240000121880700F08EF802480068401C01490F
:10225000086010BD680000200EB501210846FEF799
:10226000F3FE42F20F70ADF8040041F61F40ADF8E6
:1022700000000020ADF80600ADF8020069464FF0FE
:10228000804000F099F801221146900700F08AF88A
:102290000348FEF78FFE0121880700F066F80EBDA7
:1022A0003800002010B50121294800F06AF8002804
:1022B0004CD00121264800F055F826480078401CF3
:1022C0002449087008460078042801DD01200870C0
:1022D000214800881E493431088020480088091DA3
:1022E00008801F480088091D08801A4800780128C6
:1022F00008D117482030008840F0010014492031EF
:10230000088023E013480078022808D110482030C4
:10231000008840F010000E492031088016E00D487A
:102320000078032808D10A482030008840F48070E3
:1023300007492031088009E006480078042805D1C3
:1023400003482030008802492031088010BD000079
:102350000008004082000020840000208600002049
:1023600088000020CA430282704721B1028842F0EF
:102370000102028004E002884FF6FE731A400280D8
:10238000704730B50246002000230024158A05EA74
:102390000103958905EA010413B10CB1012000E0A5
:1023A000002030BD1AB183890B43838102E0838909
:1023B0008B43838170470000002202881D4B9842A6
:1023C0000ED01D4B98420BD0B0F1804F08D01B4B64
:1023D000984205D01A4B984202D01A4B984204D129
:1023E0004FF68F731A404B881A43174B984207D009
:1023F000164B984204D04FF6FF431A40CB881A433D
:1024000002808B8883850B8803850A4B98420BD00A
:10241000094B984208D00E4B984205D00D4B98427C
:1024200002D00D4B984201D10B7A0386012383829F
:1024300070470000002C01400034014000040040BF
:1024400000080040000C0040001000400014004054
:102450000040014000440140004801402DE9F04F98
:1024600097B08346002003908246012002907FE0CF
:1024700042480078012803D100204049087078E0E4
:102480005846039903F000F903904FF0000A29E041
:10249000504603F07BF90546594603F08BF9044694
:1024A000039903F0F1F80AA941F82A0051F82A002B
:1024B00003F0BEF8CDE9000102F0A6F98046002243
:1024C0002F4B02F08BFE064600222E4B02F0DCFB67
:1024D000044602F0A7FB0AA941F82A000AF101000C
:1024E00000F0FF0ABAF1060FD2DB4FF0060A12E045
:1024F000CAF10B010AAA52F82100234903F030FA6D
:102500000446224903F022FA0AA941F82A000AF1F6
:10251000010000F0FF0ABAF10C0FE9DB4FF0000AEE
:102520000BE00AA951F82A0003F010F904A921F8D8
:102530001A000AF1010000F0FF0ABAF10C0FF0DBFB
:10254000029801280CD14FF47A7204A90C2000F0F3
:1025500031FD4FF47A7001F053F80020029004E04E
:10256000642204A90C2000F025FD642001F048F845
:102570007EE700BF17B0BDE8F08F00001404002014
:102580000000694000407F400000964300002F4457
:102590002DE9F04F97B0834600200390824601203A
:1025A00002907FE042480078012803D10020404992
:1025B000087078E05846039903F066F803904FF0EE
:1025C000060A29E0504603F0E1F80546594603F0B3
:1025D000F1F80446039903F057F80AA941F82A00D4
:1025E00051F82A0003F024F8CDE9000102F00CF9BB
:1025F000804600222F4B02F0F1FD064600222E4BB2
:1026000002F042FB044602F00DFB0AA941F82A0041
:102610000AF1010000F0FF0ABAF10C0FD2DB4FF013
:10262000000A12E0CAF10B010AAA52F8210023495C
:1026300003F096F90446224903F088F90AA941F803
:102640002A000AF1010000F0FF0ABAF1060FE9DBE7
:102650004FF0000A0BE00AA951F82A0003F076F8BF
:1026600004A921F81A000AF1010000F0FF0ABAF1EA
:102670000C0FF0DB029801280CD14FF47A7204A9F8
:102680000C2000F097FC4FF47A7000F0B9FF0020A6
:10269000029004E0642204A90C2000F08BFC64206A
:1026A00000F0AEFF7EE700BF17B0BDE8F08F00007E
:1026B000140400200000694000407F400000964361
:1026C00000002F4410B54448008800F02000002886
:1026D00042D04148001D00884049414A1268885450
:1026E00008463F490968405C552802D101203D4910
:1026F00008703C48007801286CD139480078401CAB
:10270000C0B23749086008460068062862D1002038
:1027100008603248C0783449087001203349087095
:102720000020304908703048007801280FD02E482A
:10273000007802280BD02C480078032807D02A48BC
:102740000078042803D028480078052805D1012006
:1027500027490870274908703CE02348007806287C
:1027600006D100202149087001202149087031E07C
:102770001D48007807282DD01B480078082802D172
:10278000FFF7D4FC26E018480078092808D1FFF7A5
:102790008FFC19480068C0431849C1F8A40119E02A
:1027A000114800780A2815D00F4800780B2811D05E
:1027B0000D4800780C280DD00B4800780E2809D160
:1027C0004FF47A720E490F2000F0F4FB4FF47A7048
:1027D00000F016FF10BD000000380140500400203A
:1027E000500000205C000020540000205500002014
:1027F000140400204C000020A481214200802142CA
:10280000A40000200948008800F0200060B10748BB
:10281000001D00880649074A126888540548007858
:10282000401CC0B2034908607047000000440040EB
:1028300050060020600000200948008800F02000B9
:1028400068B10748001D00880649074A1268885485
:1028500005480088401CC0F3080003490860704721
:102860000048004050070020640000202DE9F04798
:1028700086B005460E460024A24600BFA1460027AA
:10288000B08900B100BF2F462C8A4CF6FF7004407F
:10289000F08804432C82AC894EF6F3100440B088D3
:1028A00031890843718908430443AC81AC8A4FF6EF
:1028B000FF400440B0890443AC8201A8FEF7E4FB6A
:1028C0001F48874202D1DDF810A001E0DDF80CA01E
:1028D000A88900F4004040B10AEBCA0000EB0A10DE
:1028E00031684900B0FBF1F807E00AEBCA0000EBE1
:1028F0000A1031688900B0FBF1F86420B8FBF0F0F1
:1029000004012009642101FB1089A88900F400401A
:1029100040B1322000EBC900B0FBF1F000F007003D
:10292000044308E0322000EB09106421B0FBF1F011
:1029300000F00F0004432C8106B0BDE8F0870000D2
:102940000038014000BFFEE7490050EAC12018BF2F
:1029500004204A0D18BF40F0010040F2FF72B2EBB4
:10296000515F08BF40F00200012808BF05207047F2
:102970002DE9F74F144694B00021C4E902111599CE
:10298000079121F00045C9498D4206DC1599C4E93B
:10299000000117B00020BDE8F08FC549DFF814A38F
:1029A000A9423CDD0799C44E0029C44FC44A159979
:1029B000534619DD02F052FD554506D0C14AC24BBF
:1029C00002F04CFDC4E900010AE04FF0D352BE4BC7
:1029D00002F044FD32463B4602F040FDC4E90001EE
:1029E00017B00120BDE8F08F02F04EF9554506D032
:1029F000B44AB54B02F048F9C4E900010AE04FF0CF
:102A0000D352B14B02F040F932463B4602F03CF95A
:102A1000C4E9000117B04FF0FF30BDE8F08FAB49BB
:102A2000A942159978DB21F0004183468846A84ADF
:102A3000A84B02F0D3FB0022A74B02F025F902F0CD
:102A400037FB099002F063FB06460F469C4A53464B
:102A500002F0C4FB43465A4602F0F4FC80468A4624
:102A6000984A994B3046394602F0B8FB2A0D0125A9
:102A70000B924246534602F0E5FC032DC4E90001E7
:102A800039D00B98C1F30A51401A05EB45111139A1
:102A9000814230DA9148C346784400EB0510CDF806
:102AA0000CA00C90D0E900233046394602F096FB8A
:102AB00002460B46049106905846039902F0CEFC5C
:102AC00080468A4602460B465846039902F0C6FCE9
:102AD000049B069A02F0C2FC83460C980391394687
:102AE000D0E90223304602F079FB5A46039B02F0FC
:102AF000B5FC6D1CBDE707980028A2BF099817B068
:102B0000BDE8F08F616881F000416160099817B0FD
:102B10004042BDE8F08FFFE784461598C1F31301EA
:102B2000C0F30A50A0F2F5304FEA601800F01F061B
:102B3000C6F12000139000200690079041F4801EFB
:102B400005206D4676B1664A08EB00017A4452F8DA
:102B5000213002EB8101B3404A68139922FA01F156
:102B6000194305E05F4908EB0002794451F822104F
:102B7000A1FB0E27A1FB0C131A449A4234BF012378
:102B8000002303EB070A05EB8003D3E901B70F44E9
:102B90008F4234BF0121002193448B4411B19345EE
:102BA00002D903E0934501D2012100E00021C3E9ED
:102BB00001B7514445F82010011EA0F10100C1DC0D
:102BC0000298059F00F10050800F12900298DDE9F5
:102BD0000356800002F09BFA834628460D9102F0CE
:102BE000ADFA6FF01D0202F062FFCDE90E01304632
:102BF00002F0A4FA6FF03D0202F059FF80468A46C7
:102C0000384602F09BFA6FF05D0202F050FF074673
:102C100042465346119102F037F8DDE90E2302F0E7
:102C200033F85A460D9B02F02FF800250E465A46FF
:102C300028460D9B02F012FCDDE90E2302F00EFC8B
:102C40004246534602F00AFC3A46119B02F0FAFB58
:102C5000DFF898A0244A534602F0C0FA0746884697
:102C6000234A244B3146284602F0B8FA3A464346F6
:102C700002F00AF8074688464FF0A842534631460C
:102C8000284602F0ABFA3A46434601F0FDFF159A9A
:102C900012F0004F04D0129A81F000415242129279
:102CA000C4E90001129817B0BDE8F08FFB21E93F9D
:102CB0007CD90240FB21F93F7370032E8A19A33B94
:102CC000000040543163621A61B4D03DFB213941A8
:102CD00083C8C96D305FE43F0000E03F4C35000021
:102CE000C8340000AA340000182D4454FB21F93DDB
:102CF0003326A611460B113C2DE9FF4D21F000486B
:102D000007460C46B8F1795F08DA02F0D1F90028DD
:102D100001BF0020324904B0BDE8F08D3A46234699
:102D20001046194602F05AFA054602462D480E464C
:102D30000B460621784400F05DF82A46334602F03F
:102D40004DFADDE9022382468B463846214602F0E1
:102D500045FA04460F4652465B462846314602F085
:102D60003DFA22463B4602F079FB07468A464FF081
:102D7000FF322846314602F09AFE1B4A90450ADA95
:102D80003A46534602F06AFB04B00022BDE8F04D1B
:102D9000134B02F057BB154A4245A8BFA8F50015D2
:102DA0004FF00004B8BF124D22462B4602F056FBEE
:102DB0000646884622462B460020094902F04EFB73
:102DC00004460D463A4653463046414602F046FB1D
:102DD00004B022462B46BDE8F04D02F033BB0000A4
:102DE0000000F03F803200003333D33F0000E93F62
:102DF0000000D23F2DE9F0414F1E00EBC701044611
:102E0000D1E9000115461E4637F006020DD02A46CC
:102E1000334602F0E3F97F1E04EBC703D3E9002336
:102E200001F032FF37F00602F1D1022F25D0042F36
:102E300013D0062F18BFBDE8F0812A46334602F0B2
:102E4000CDF9D4E90A2301F01FFF2A46334602F0E8
:102E5000C5F9D4E9082301F017FF2A46334602F0EA
:102E6000BDF9D4E9062301F00FFF2A46334602F0EC
:102E7000B5F9D4E9042301F007FF2A46334602F0EE
:102E8000ADF9D4E9022301F0FFFE2A46334602F0F1
:102E9000A5F9D4E90023BDE8F04101F0F5BE00003A
:102EA0002DE9FF4D054621F0004084B00C46B0F1FD
:102EB000795F0BDA2846FFF747FD042808BF00F0CA
:102EC0006FF8284608B02146BDE8F08D2A460B462B
:102ED000104602F083F906460F462A46234602F0C2
:102EE0007DF9804626488A4632463B46052178448D
:102EF000FFF780FF83461098029160B3214A224B6E
:102F00004046514602F06AF9CDE900015A46404672
:102F10005146029B02F062F982468846DDE90601CD
:102F20004FF0FF3202F0C3FD5246434602F096FADC
:102F300032463B4602F052F9DDE9062302F08EFAF2
:102F4000DDE9002302F08AFA08B02A462346BDE8EC
:102F5000F04D02F077BA0B465A463046394602F039
:102F60003DF9084A084B01F08FFE4246534602F0F5
:102F700035F908B02A462346BDE8F04D01F084BE7D
:102F8000BE310000495555555555C5BF012202F0C7
:102F90008EBD002213461046114601F031BF0000DD
:102FA000024A0020110702F082BD000001FDFFFF70
:102FB00000BF70472DE9F04105460E461746002434
:102FC00008E036F81410621CD0B23A4600F0A5F8BA
:102FD000601CC4B2AC42F4DB0020BDE8F081F0B567
:102FE00005460C460026002717E0207855280CD10E
:102FF0006078552809D1A078A84206D1E078052844
:1030000003D120791C2800D108E0641C701CC6B2D2
:103010001E2E02DB40F2FF10F0BDE6E700BF2046A7
:10302000FDF7B4FF0746E079874202D040F2FF1077
:10303000F2E76079A17940EA0120EDE77CB5064628
:10304000002000900190002400251CE00020104981
:10305000086000236A461C21304600F01DF802205B
:1030600000F0CEFA0B493046FFF7B9FF05464FF6A0
:10307000FF70854200D007E0601CC4B20A2C02DB5E
:103080004FF6FF707CBDE1E700BF2846FAE700007D
:1030900064000020500700202DE9F041C0B0064632
:1030A0000F4690461C4600254FF480716846FDF798
:1030B00038F9A01DB0F5807F03DD002040B0BDE8E9
:1030C000F08155208DF800008DF801008DF8026028
:1030D000E01CC0B28DF803008DF804705CB10025CF
:1030E00006E018F80510681D0DF80010681C85B280
:1030F000601EA842F5DA6846FDF748FF611D0DF82D
:10310000010001F041FDA01DC1B2684600F023F8A6
:1031100001F026FDA01DC0B2D0E77CB506460C46E6
:103120001546002000900190E0B28DF800002012BA
:103130008DF80100E8B28DF8020028128DF8030026
:1031400004236A4601213046FFF7A6FF022000F063
:1031500057FA00207CBD70B504460D46294620462E
:1031600001F0E0FC70BD000070B504460D46002083
:10317000E070401E20632946204601F003FA08B1A2
:10318000042070BD04F2322001F085F94AF6552181
:10319000884201D00320F4E794F83400E92807D0EE
:1031A00094F83400EB2817D13620005D902813D115
:1031B00004F16A0001F063F920F07F40074988427A
:1031C00001D10020DDE704F1860001F058F904493F
:1031D000884201D10020D4E70220D2E746415400C2
:1031E00046415433024600E0521C107810B110786A
:1031F0008842F9D1107870470246891E9069801E76
:10320000884201D8002070475389D06A01FB03002F
:10321000F9E700002DE9F04780460C4604F11A005A
:1032200001F039F910B10020BDE8F087207800F0F6
:103230003F00401E00EB800101EBC0054FF001098B
:10324000002621E01849895D081901F024F9074694
:10325000B9F1000F11D0FF2D0BD2384600F0CAFD96
:10326000824629466D1C38F8110000F0C3FD8245E6
:1032700001D00020D8E7B94605E04FF6FF7087423D
:1032800001D00020D0E7761C0D2EDBD3207800F093
:10329000400038B1B9F1000F04D038F8150008B17A
:1032A0000020C1E70120BFE7DC5B00082DE9F04703
:1032B00082468946DAF80040B9F1000F06D1276945
:1032C00017B1A069B84215D8012713E04946504606
:1032D00001F00EF80646022E02D20120BDE8F0876A
:1032E000701C08B93046F9E7A069B04201D93046F0
:1032F000F4E74F463D4600BF6D1CA069A84204D8C4
:103300000225BD4201D90020E8E72946504600F0D9
:10331000EFFF064606B909E0012E01D0701C08B97E
:103320003046DBE7BD42E7D10020D7E700BF00BF52
:103330004FF0FF322946204601F03EF98046B8F1B1
:10334000000F08D1B9F1000F05D02A4649462046A2
:1033500001F032F98046B8F1000F0DD12561D4E9B2
:103360000510801E814202D26069401E6061207992
:1033700040F00100207107E0B8F1010F02D14FF0D9
:10338000FF3000E0012005462846A7E72DE9F34F6E
:1033900083B08146049800680190D9F80000D0F805
:1033A0000CA000200546064600BF3046761C019959
:1033B0000C5C202C00DA2BE02F2C01D05C2C0AD1E5
:1033C00000E0761C0198805D2F28FAD00198805D7E
:1033D0005C28F6D01CE0FF2D03D3062005B0BDE825
:1033E000F08FE4B20121204600F0DEFC04460CB967
:1033F0000620F3E7802C06DA21466AA0FFF7F2FEEA
:1034000008B10620EAE728466D1C2AF81040CCE7F0
:1034100000BF0198811904980160202C01DA042072
:1034200000E00020074608E0681E3AF81040202C13
:1034300002D02E2C00D002E06D1E002DF4D100BF72
:1034400000202AF815000DB90620C7E70B2220211D
:1034500009F1200001F08DF8002600E0761C3AF812
:1034600016002028FAD03AF816002E28F6D00EB111
:1034700047F0030700E06D1E25B1681E3AF8100002
:103480002E28F8D14FF00008CDF808804FF0080B37
:1034900000BF3046761C3AF8104004B954E0202CA6
:1034A00003D02E2C04D1AE4202D047F00307F0E740
:1034B0000298584501D2AE4216D1BBF10B0F02D192
:1034C00047F0030740E0AE4201D047F00307AE42A9
:1034D00000D939E02E46082002904FF00B0B4FEA3E
:1034E00088604FEA1068D4E7802C0BDB002120466F
:1034F00000F05AFC04461CB1A4F180002C490C5C7D
:1035000047F0020700BF24B121462AA0FFF76AFE58
:1035100018B15F2447F003070FE0412C04DB5A2C5D
:1035200002DC48F0020808E0612C06DB7A2C04DC9F
:1035300048F00108A4F1200084B20298411C0291D5
:1035400009F120010C54A4E700BF99F82000E528F8
:1035500002D1052089F82000BBF1080F03D14FEA02
:1035600088604FEA106808F00C000C2803D008F0BF
:103570000300032801D147F0020707F0020058B901
:1035800008F00300012801D147F0100708F00C00F3
:10359000042801D147F008072B2000F8097000200B
:1035A0001CE70000222A3A3C3E3F7C7F00000000DE
:1035B0005C5B00082B2C3B3D5B5D000010B56FF0A1
:1035C0000400FEF7F1FD0A4800680A49B0FBF1F07B
:1035D000094908700846007800EB4001C1EBC010B3
:1035E0004FF6FF7101EAC0000449088010BD0000D9
:1035F0000000002000127A001400002016000020B5
:103600000146114A12884A434FF0E0235A610022D2
:103610009A611A46126942F001021A6100BF4FF026
:10362000E022106900F001021AB100F48032002A91
:10363000F5D04FF0E022126922F001024FF0E023B2
:103640001A6100229A617047160000202DE9F041AE
:1036500004460E46D4F800800021204600F0CBF945
:103660000546EDB9002700BF4046A16900F08AFF7A
:10367000054605B113E0E0690078E52802D0E0696D
:10368000007820B9781C0746B04201D107E0002736
:103690000121204600F088F80546002DE4D000BF47
:1036A000042D00D107252846BDE8F0812DE9F0471B
:1036B0000446D4F800A00021204600F09CF90646FC
:1036C00016B13046BDE8F0874FF0FF08C1464FF015
:1036D000FF30E06200BF5046A16900F053FF06468C
:1036E00006B15EE0E06905780DB9042659E0E069AD
:1036F000C07A00F03F07A771E52D04D007F008005D
:1037000038B10F2F05D04FF0FF084FF0FF30E062C7
:1037100040E00F2F22D12B20005D00F0400098BB2D
:1037200005F0400038B1E06990F80D9025F04005B3
:10373000A8462069E06245450CD1E069407B4845D8
:1037400008D1E169DAF80C00FFF764FD10B1A8F1C7
:10375000010000E0FF2000F0FF081BE0B8F1000FBF
:1037600005D1E06901F0C4F8484500D119E02B20EB
:10377000005D00F0010040B90B2204F12001E06976
:1037800000F0D8FE08B90CE004E04FF0FF084FF05D
:10379000FF30E0620021204600F006F80646002EC9
:1037A00099D000BF30468DE72DE9F04704468946A1
:1037B0002568206900F12007A06910B1B7F5001F46
:1037C00002D30420BDE8F087C7F30800002868D1C1
:1037D000A069401CA061606938B92889B0EB571F07
:1037E0005FD80020A0610420ECE76889401E00EA51
:1037F0005720002855D12046616900F079FD064622
:10380000012E01D80220DDE7701C08B90120D9E79C
:10381000A869B0423FD8B9F1000F03D10020A061E0
:103820000420CFE720466169FFF740FD06460EB948
:103830000720C7E7012E01D10220C3E7701C08B999
:103840000120BFE7284601F0ABF808B10120B9E735
:103850004FF40072002105F1340000F08AFE4FF0B1
:10386000000831462846FFF7C7FC28630CE001201A
:10387000E870284601F094F808B10120A2E708F1A9
:103880000108286B401C286368894045EFD8286BE5
:10389000A0EB08002863666131462846FFF7ACFCC0
:1038A000A0612761C7F3080105F134000844E06115
:1038B000002087E72DE9FE4F044626682B20005D97
:1038C00000F0A00010B10620BDE8FE8F4FF0000907
:1038D00001E009F10109F06830F819000028F8D179
:1038E0000C2204F12001684600F036FE9DF80B0022
:1038F00000F0010028B340212B2001554FF00108B2
:103900000EE04346694604F12000F26800F096FCA0
:103910002046FFF7CBFE054605B104E008F101089B
:10392000B8F1640FEDD300BFB8F1640F01D10720E7
:10393000CAE7042D01D02846C6E79DF80B102B20BE
:1039400001559DF80B0000F0020030B109F10C00A8
:103950000D21B0FBF1F0401C00E001200746394684
:103960002046FFF773FE05464DBB781E070026D0A4
:103970002069A0EB4711204600F03DF80546F5B957
:1039800004F1200000F0B4FF824600BF3046A16978
:1039900000F0F8FD054605B110E0FAB2E1695346C2
:1039A000F06800F0A5FE0120F07000212046FFF72E
:1039B000FBFE054615B9781E0700E7D100BFC5B963
:1039C0003046A16900F0DEFD054695B920220021B0
:1039D000E06900F0CEFD0B2204F12001E06900F067
:1039E000BBFD2B20005D00F01800E1690873012089
:1039F000F070284668E72DE9F04104460D46266838
:103A0000B5F5001F02D205F01F0010B10220BDE87D
:103A1000F0812561A7681FB93078032800DBB76AF9
:103A200047B93089B0EB551F01D80220EFE7B06AE3
:103A3000A0611CE070894FEA402811E03946204619
:103A400000F056FC0746781C08B90120DFE7022F7A
:103A500002D3B069B84201D80220D8E7A5EB080527
:103A60004545EBD239463046FFF7C6FBA06167619A
:103A7000A06908B90220CAE7A06900EB5520A0613F
:103A8000C5F3080106F134000844E0610020BEE7F8
:103A900070B50546FDF704FF04460CB1012070BD6A
:103AA0000020FCE710B50346052911D2DFE801F03C
:103AB000030A050C0E0000200CE04FF40074148083
:103AC000002007E0002005E0002003E0002001E0E6
:103AD000042000BF00BF10BD2DE9F04180460D4617
:103AE00016461F4600240FE03219510205EB442010
:103AF0004FF40072FEF76EF8FEF710F900BFFDF705
:103B0000C0FE0028FBD1641CBC42EDD30020BDE800
:103B1000F0810146002070472DE9F04107460D462F
:103B200014461E46012E0ED9610233464FF4007230
:103B30002846FEF799F9FEF70BF900BFFDF7A1FE45
:103B40000028FBD10CE061024FF400722846FEF71A
:103B50001DF9FEF7FDF800BFFDF793FE0028FBD12D
:103B60000020BDE8F08138B504466946204601F0E2
:103B700037F805460DB900202060284638BD2DE9EC
:103B8000F1478DB0022269460DA800F085F905467F
:103B900000980190002D71D101A80D9900F0FCFA58
:103BA000054605B9082500BF042DF4D1002101A860
:103BB000FFF77CFB064600984089400204900025F0
:103BC00006B90725012E00D10225701C00B9012578
:103BD0001DB9009800F0E4FE054600F0F9FB8246AE
:103BE000002D56D131460098FFF706FB804600981D
:103BF00000F134044FF400720021204600F0B9FCBB
:103C00000B222021204600F0B4FC2E202070102032
:103C1000E072514604F1160000F058FE324621468B
:103C2000009800F041FE2022214604F1200000F01F
:103C300093FC2E2084F82100DDF80C900098007889
:103C4000032804D10098806A484500D1A9464A4615
:103C500004F12001009800F027FE0098478915E044
:103C60000098C0F8308008F1010801200099C87060
:103C7000009800F095FE05460DB109E02AE04FF4EA
:103C800000720021204600F074FC7F1E002FE7D157
:103C900000BF1DB901A8FFF70DFE0546ADB9089C90
:103CA000514604F1160000F011FE324621460098FC
:103CB00000F0FAFD1020E07201200099C8704DB9A3
:103CC000009800F025FE054604E00022314601A8D8
:103CD00000F04EFD28460EB0BDE8F087F7B582B083
:103CE00016460398019001A800F074FB0546002DCC
:103CF00002DA0B2005B0F0BD0E4850F825400CB19B
:103D000000202070029810B1002002990870094923
:103D1000029841F82500029808B1012E01D0002038
:103D2000E8E7002202A903A800F0B6F807463846E3
:103D3000E0E700001804002073B582B0064616B90B
:103D4000092004B070BD3546002201A903A800F087
:103D5000A3F804461CBB019828603046039900F084
:103D60001BFA0446C4B92B20805D00F0800050B9D6
:103D7000A87900F0100028B1F169019800F06CFBFF
:103D8000A86000E005243CB90198C088A880002103
:103D90003046FFF730FE0446042C00D105240CB158
:103DA000002028602046CCE710B50246802A01DAC0
:103DB00010461BE051B1FF2A01DD002304E0A2F10F
:103DC00080030B4C34F8133018460FE0002007E056
:103DD000074B33F81030934200D103E0431C98B2F4
:103DE0008028F5DB00BF00F18003D8B210BD0000D1
:103DF000065C000830B5B0F5805F01DA244D00E0C4
:103E0000244D294600BF31F8022B0AB1904200DA56
:103E10003CE031F8023B1C12DBB2D518854230DDA4
:103E2000092C2CD2DFE804F005090F13171B1F2300
:103E30002700851A31F8150021E0851A05F00105E3
:103E4000451BA8B21BE0A0F11005A8B217E0A0F135
:103E50002005A8B213E0A0F13005A8B20FE0A0F150
:103E60001A05A8B20BE000F10805A8B207E0A0F11E
:103E70005005A8B203E0A0F5E355A8B200BF00BF0B
:103E800004E0002CBFD101EB4301BCE700BF30BD13
:103E9000065D0008F85E00082DE9F74F8AB00021A2
:103EA0000B9801600A9800F095FA0890089800288D
:103EB00003DA0B200DB0BDE8F08FB249089851F835
:103EC00020400CB90C20F5E70B9804600C9820F00A
:103ED00001000C90207878B16078FFF71AFE8146D7
:103EE00009F0010040B90C9820B109F0040008B1B4
:103EF0000A20DFE70020DDE70020207008986070CE
:103F00006078FFF7C5FD814609F0010008B1032084
:103F1000D0E70C9820B109F0040008B10A20C9E7E5
:103F2000002739462046FFF71FF90546022D01D02C
:103F30002EDA2DE0002614E04FF4DF7000EB0611BE
:103F400004F13400084409900998007920B10998D7
:103F5000083000F094FA00E0002002A941F82600A1
:103F6000761C042EE8D3002606B1761E00BF02A8F8
:103F700050F8267027B139462046FFF7F5F800E0E3
:103F800003200546022D03DB701C06460428EED3F1
:103F9000042D01D101208DE7022D01DB0D2089E7E1
:103FA00004F13F0000F077FAB0F5007F01D00D205A
:103FB00080E704F14A0000F06EFA8046B8F1000F85
:103FC00004D104F1580000F05AFA8046C4F81C806D
:103FD0004420005DA070A078012804D0A0780228B9
:103FE00001D00D2066E7A07808FB00F84120005DB5
:103FF0006081608918B16089411E084008B10D20B8
:1040000058E704F1450000F046FA2081207A00F0DC
:104010000F0008B10D204DE704F1470000F03BFA16
:104020008246BAF1000F04D104F1540000F027FADF
:10403000824604F1420000F02EFA0190019808B97E
:104040000D2037E701984044218900EB11100790BB
:104050000798824501D20D202CE70798AAEB0000B3
:104060006189B0FBF1FBBBF1000F01D10D2021E70D
:1040700003254FF6F570834500D8022540F6F5700C
:10408000834500D801250BF10200A0612762019849
:104090003844606207983844E062032D13D104F17C
:1040A0005E0000F0F8F908B10D2003E7208908B19F
:1040B0000D20FFE604F1600000F0E1F9A062A069C4
:1040C0008000069014E0208908B90D20F2E6606AAD
:1040D0004044A062022D02D1A069400007E0207E8A
:1040E00000F00100A16901EB410100EB51000690D5
:1040F000E169069800F2FF10B1EB502F01D20D20BC
:10410000D8E64FF0FF306061206180202071032DE0
:104110002CD104F1640000F0BEF9012826D1791CED
:10412000204600F02FFA08BB0020207104F2322054
:1041300000F0B1F94AF65521884217D104F1340054
:1041400000F09DF91049884210D104F5067000F086
:1041500096F90E49884209D104F5077000F08FF9ED
:10416000606104F5087000F08AF920612570084844
:104170000088401C80B206490880E0800548E06065
:10418000002097E61804002052526141727241618A
:104190001C040020140A00202DE9F34104462646A1
:1041A000D6F8008002E00198401C01900198007848
:1041B0002F28F8D0019800785C28F4D00020B06057
:1041C00001980078202808D280212B200155002159
:1041D0002046FFF710FC05462CE000BF01A9204651
:1041E000FFF7D4F8054605B123E02046FFF75EFA55
:1041F00005462B20075D3DB1042D04D100BF07F01B
:10420000040000B9052514E007F0040000B110E037
:10421000B07900F0100008B905250AE0208AC0F343
:10422000080208F134001118404600F015F9B0609A
:10423000D4E700BF2846BDE8FC8100002DE9FF4F10
:1042400083B0814690461D460B224846049900F0F3
:1042500083F9052D18D92F4611E038F802BB002448
:104260000BE0584667F35F0007464FEA6B0B07F415
:10427000803008B11D484740641C102CF1D3B8F8B9
:1042800000000028E9D13D46072400BF05F00F00DB
:1042900000F1300ABAF1390F03DD0AF1070000F02E
:1042A000FF0A2046641E01A901F800A02D09002D77
:1042B000ECD17E200855002600E0761CA64203D2F1
:1042C00019F806002028F8D100BF082C04D2204697
:1042D000641C01A9085C00E020203146761C09F826
:1042E0000100082EF1D307B0BDE8F08F21100100C6
:1042F0002DE9F04781460C46D9F80050022C02D334
:10430000A869A04202D84FF001085EE04FF0FF38E4
:104310002878012804D002282CD0032851D13CE071
:10432000264606EB5606686A00EB5621284600F042
:1043300029F900B148E03046761CC0F3080105F1C8
:104340003400475C686A00EB5621284600F01AF9F1
:1043500000B139E0C6F3080105F13400405C47EADA
:10436000002704F0010008B1380901E0C7F30B0091
:10437000804629E0686A00EB1421284600F002F923
:1043800000B121E040F2FF1101EA440205F13401DD
:10439000501800F080F8804616E0686A00EBD411EF
:1043A000284600F0EFF800B10EE040F2FF1101EAFC
:1043B000840205F13401501800F061F820F07048D3
:1043C00002E04FF0010800BF00BF4046BDE8F087A3
:1043D0000020704770B502464FF0FF301568DDB120
:1043E000116800E0491C0D78202D02D30D783A2D7C
:1043F000F8D10D783A2D0ED1146814F8015BA5F1AF
:1044000030030A2B06D28C4204D11BB918464D1C2E
:104410002946156070BD002000BFFBE710B50C48B1
:10442000806940F010000A4988610A48006820F05D
:10443000F000084908600846006840F08000086005
:104440000846006940F002000861FCF75DFA10BD03
:10445000001002400010014070B505460C4604F102
:104460001A0000F018F806462878032805D104F150
:10447000140000F010F846EA0046304670BD0146D0
:10448000C8788A7842EA00204A7842EA00200A780E
:1044900042EA00207047014648780A7842EA002044
:1044A00070470000FFF78AF8FCF73EFDFFF7B6FF04
:1044B0004FF4E13000F09EFA4FF4E13000F0E0FA02
:1044C00000F076FBFDF7C8FEFDF7EAF9FCF7D8FA35
:1044D0004FF47A70FFF794F84FF47A720F490F2077
:1044E000FEF768FD19E00E480078B0B10D4800787D
:1044F000FCF778FA0C48007830B9FF2009490870B9
:1045000000200749087002E00020074908700748AA
:104510000068C0430649C1F8A401E4E7A4000020F4
:1045200055000020540000204C000020A4812142AE
:1045300000802142F0B503461D460C46002000BF16
:1045400015F8017B14F801CBA7EB0C00561E3200C6
:1045500001D00028F4D0F0BD30B503460C463AB186
:1045600000BF14F8015B03F8015B551E2A00F8D167
:1045700030BD10B5034600BF03F8011B541E2200D6
:10458000FAD110BD70B504460D460026206BA84236
:1045900010D0204600F004FA06465EB96078012388
:1045A0002A4604F13401FFF797FA10B14FF0FF35B6
:1045B00001262563304670BD2DE9F04704460D46BF
:1045C00016464FF00209022D74D3A069A84271D992
:1045D0002078012804D0022849D003280DD15EE0BC
:1045E0002F4607EB5707606A00EB57212046FFF77D
:1045F000C9FF8146B9F1000F00D075E038467F1C35
:10460000C0F3080104F1340001EB000805F00100DB
:1046100028B1F1B298F8000061F31F1000E03046B5
:1046200088F800000120E070606A00EB5721204606
:10463000FFF7A8FF8146B9F1000F00D054E0C7F39F
:10464000080104F1340001EB000805F0010010B18D
:10465000C6F3071006E098F8000000F0F000C6F37B
:104660000321084388F800000120E0703CE0606A04
:1046700000EB15212046FFF785FF8146B9F1000FB9
:1046800000D031E0B1B240F2FF1202EA450304F17A
:104690003402981800F026F90120E07024E0606AE6
:1046A00000EBD5112046FFF76DFF8146B9F1000FF1
:1046B00001D019E019E040F2FF1101EA850204F18E
:1046C00034015018FFF7DBFE66F31B00064640F28C
:1046D000FF1101EA850204F134015018314600F05F
:1046E000F5F80120E07000BF00BF4846BDE8F08744
:1046F0002DE9F04707460C461546984684F80D808C
:104700000F20E07200202073002104F11A0000F055
:10471000E9F8681E00EB800101EBC00900200646A5
:10472000824600BF4FF6FF70864204D0484609F12A
:10473000010937F810600D4911F80A1008193146BF
:1047400000F0D0F80EB94FF6FF760AF1010082466C
:104750000D28E7D34FF6FF70864202D037F81900D4
:1047600008B945F040052570BDE8F087DC5B00081E
:104770002DE9F04781460E4617464FF00008D9F85C
:104780000040022E02D3A069B04202D80220BDE848
:10479000F08767B100BF4FF0FF3239462046FFF780
:1047A0000BFF8046B8F1000F01D04046EFE700BF95
:1047B00031464846FFF79CFD054605B920E0012D2E
:1047C00001D10220E3E7681C08B90120DFE70022DD
:1047D00031462046FFF7F0FE8046B8F1000F01D0C9
:1047E0004046D4E76069401C30B16069401C60619C
:1047F000207940F0010020712E46A069B042D7D840
:1048000000BF0020C3E7000000B5254B21F00042A7
:1048100087B09A4203DC0022134600922BE0214B22
:104820009A4208D140B94FF00100FBF7AAFDFEF70C
:10483000B0FB07B000BD03DBFEF7A8FB07B000BD6F
:1048400002AAFEF795F810F003014FF001000DD019
:10485000012914D002291AD00DF1080C9CE80F0090
:10486000FEF74AFA07B081F0004100BD0DF1080CD7
:1048700000909CE80F00FEF713FB07B000BD0DF1A0
:10488000080C9CE80F00FEF737FA07B000BD0DF1E9
:10489000080C00909CE80F00FEF702FBE2E7000026
:1048A000FB21E93F0000F07F70B506460C46154637
:1048B000A9B204F11A0000F015F83078032804D1E9
:1048C000290C04F1140000F00DF870BD00F8011B74
:1048D000090A00F8011B090A00F8011B090A00F87F
:1048E000011B704700F8011B091200F8011B7047FB
:1048F00030B5014600200B2200BF431003EBC0146B
:1049000011F8015B6319D8B2531E1A00F5D130BDFE
:1049100070B50446204600F043F80546002D38D116
:10492000207803282ED1207901282BD142020021A2
:1049300004F13400FFF71DFE4AF6552104F232203F
:10494000FFF7D0FF144904F13400FFF7BFFF13490C
:1049500004F50670FFF7BAFF04F507706169FFF709
:10496000B5FF04F508702169FFF7B0FF206A401C0D
:1049700020636078012304F13401226BFFF7CCF847
:1049800000202071607800221146FFF78BF800B1FB
:104990000125284670BD000052526141727241618A
:1049A0002DE9F04104460027E078F8B1256B6078E6
:1049B00001232A4604F13401FFF7AEF808B10127BC
:1049C00014E00020E070606A281AE16988420DD284
:1049D000A67809E0E0690544607801232A4604F1DD
:1049E0003401FFF799F8761E022EF3D23846BDE85F
:1049F000F08100001FB504461C4B0FCB8DE80F0063
:104A000000941B48C06840F480401949C8600846BB
:104A1000C06820F48040C8600846806940F0040007
:104A200088610846806940F48040886111480068C8
:104A300020F47F600F4908600846006840F40F606A
:104A400008600D48FCF7B6FA69460C48FDF70EFF02
:104A50000A480C30008840F0200008490C310880DA
:104A60000846008840F4005008801FBD3C5B0008E9
:104A700000100240040801402C00002000380140D2
:104A80001FB50446224B0FCB8DE80F000094214840
:104A9000006940F480201F4908610846006920F43D
:104AA000802008610846806940F008008861084657
:104AB000C06940F48020C8611748006820F47F4036
:104AC000154908600846006840F40B40086011482A
:104AD000006940F480200F4908610846006920F40D
:104AE000802008610D48FCF765FA69460C48FDF71F
:104AF000BDFE0B480C30008840F0200008490C3106
:104B000008800846008840F4005008801FBD00005F
:104B10004C5B000800100240040C014034000020EF
:104B20000048004010B5024600200CE000BF0B4BCF
:104B30001B8803F04003002BF9D0135C074C241DA5
:104B40002380431CD8B24B1E8342EFDA00BF034BD5
:104B50001B8803F04003002BF9D010BD0048004033
:104B60000648008840F020000449088000200449DD
:104B7000086001200349C1F88001704710480040D7
:104B800084812142008021420020064908600120E2
:104B90000549C1F884010548008820F02000034938
:104BA00008807047808121420080214210480040E7
:104BB00008B501210820FCF757FA0320ADF80000E2
:104BC00010208DF8030003208DF802006946034889
:104BD000FCF780F8FFF7C4FF08BD0000000C01409F
:104BE0002DE9F04105460F462C4685B1206870B18D
:104BF0002068007858B12068C088A188884206D112
:104C000021684878FEF785FF00F0010018B1002008
:104C10003860092602E02068386000263046BDE88A
:104C2000F081000021F00042A2F16052B2F5801F35
:104C300001F0004328BFD2F17F6C0BD95FEA001C62
:104C400043EAC20242EB507018BF704728BF20F001
:104C500001007047B2F5801FBCBF184670474FEA8D
:104C6000410C1CF5001F02D2084600F06ABE70B568
:104C700000F05EFB00000089FFF7F6BF4FF0004038
:104C8000A0F580007047000010B591EA030F48BFFF
:104C900083F0004300F1EA83841A71EB030C05D220
:104CA000121943EB0C03001B61EB0C01DFF824E14C
:104CB0004FEA1154A4EB135C1EEA430F18BF9EEA9F
:104CC000445F73D023EA0E03DCF1200E21EA045185
:104CD00043F4801332D322FA0CFE10EB0E0023FAB9
:104CE0000CFE41EB0E01CCF1200E03FA0EFE10EB90
:104CF0000E0051F10001B1F5801FCCF1200E32D22F
:104D000001EB045112FA0EF2BDE8104058BF704793
:104D1000401C38BF5FEA420218BF7047002814BF2A
:104D200020F0010041F100014FEA410313F5001F9B
:104D300038BF7047A1F1C04100F048BB012A43EBE6
:104D40000302ACF1200CDCF11F0E32BF4FF0000E5D
:104D500023FA0CF310EB030041EB0451B4EB115FA9
:104D6000D0D0A1EB045101F5801149085FEA300071
:104D700001EB04510ED350F1000038BF12FA0EFEC1
:104D800008D1BDE81040C9E7401C38BF5FEA4202C5
:104D9000CAD1C3E7BDE810404FEA410313F5001F35
:104DA00038BF7047A1F1C04100F010BB9EEA445FDC
:104DB00008D011EA5E0FBDE8104004BF01F00041C9
:104DC00000207047BDE8104070B500F0B1FA00BF98
:104DD00064FBBE3E0000E0FF02494FF0000000F01F
:104DE00034BE00BF0000F87F491058BFC1F14041F8
:104DF0005B1058BFC3F140438B42EFF30080704714
:104E00002DE9C04130B4DFF8A0C23CEA111418BF4C
:104E10003CEA131400F0EC8081EA03051CEA11144B
:104E200044EAD57418BF1CEA131500F0C780A4EB40
:104E300005044FF0004545EAC12145EAC32341EA94
:104E4000505143EA525304F17F74994204F50034FF
:104E50004FEAC0204FEAC22208BF904200F09C8077
:104E60004FEA13650FF24016765D4FEA134506FBD5
:104E700005F7C7F1807706FB07F74FEAD737A7FB9F
:104E800003687642C8F58038A7FB06CE38BFA8F184
:104E9000010807FB08E64FF0000EA6FB028CE6FBBC
:104EA00003CEDCF1000CCEF1004E38BFAEF1010EA6
:104EB000A6FB0C584FF000074FF00005E6FB0E87ED
:104EC000A1FB08C6A0FB07CE16EB0E0645F10005B8
:104ED000E1FB076515F1E04E7EBFA4F580345FEA83
:104EE00046066D4116F1800745F100054FEA172788
:104EF0004FEA066647EA0567A6F1DE46B6F1805F2F
:104F00004FEA15251FD9384624F0010C05EBC47172
:104F1000BCF1FE6F01EB0C1102D8F0BCBDE80081C2
:104F200024425CBF01F5801E9EEAC47F02D4F0BC1F
:104F3000BDE80081244238D4F0BCA1F1C041BDE8F5
:104F4000004100F043BA4FEAD22242EA43524FEA0C
:104F5000D323A7FB02864FEAD02040EA415007FB4B
:104F600003661EEA0E0F4FEAD12105FB026658BF09
:104F7000A6EB0056B6EB00564FEA520E4EEAC37E41
:104F800018EB0E0E56EB530EBDD518EB02085E4122
:104F90007F1C55F10005B6E74FF480154FF0000770
:104FA0004FF000064FF00008ADE7F0BC4FF00000F6
:104FB00001F1C04101F00041BDE8008111EA0C1F80
:104FC0000CEA131500D00CE013EA0C1F00F025804A
:104FD0004FF00000F0BC81EA030101F00041BDE8A0
:104FE0000081F0BCBDE8004181EA030100F0EEB9A8
:104FF000F0BCBDE8004170B500F09AF9097EFC3EB6
:1050000000F007B881EA03014FF0000001F0004111
:10501000704781EA030100F0D9B9F0BCBDE8004156
:105020004FF0000021497047FFFDFBF9F7F5F4F25E
:10503000F0EEEDEBE9E8E6E4E3E1E0DEDDDBDAD833
:10504000D7D5D4D3D1D0CFCDCCCBCAC8C7C6C5C491
:10505000C2C1C0BFBEBDBCBBBAB9B8B7B6B5B4B3A8
:10506000B2B1B0AFAEADACABAAA9A8A8A7A6A5A493
:10507000A3A3A2A1A09F9F9E9D9C9C9B9A99999857
:105080009797969595949393929191908F8F8E8EFA
:105090008D8C8C8B8B8A8989888887878685858487
:1050A00084838382828181800000FF070000F87F73
:1050B0004FEA41034FEA5353A3F58063D3F11E0334
:1050C000C8BFD3F1210C0CDD4FF0004242EAC122EF
:1050D00042EA505232FA03FC8CEAE17CACEBE1701C
:1050E0007047102BC4BF0020704703F5787CBCF1DB
:1050F000FF3F04D06FF0004282EA2100704770B594
:1051000000F016F94992248000207047F2E710F071
:10511000004248BF4042B0FA80F310FA03F10AD0CF
:10512000C3F11D0303F580634FEA415002EB0352C4
:1051300002EBD12170474FF000007047B0FA80F3C6
:1051400010FA03F10AD0C3F11D0303F580634FEA9F
:1051500041504FEA035202EBD12170474FF000005B
:105160007047000051EA030C17D41CF5801F58BF8C
:10517000BCF5801F00F10680994218BF704708BF38
:105180009042704707D711F5801F58BF13F5801F55
:1051900019D499427047894270471CF5801F08D581
:1051A000BCF5801FF7D58B4218BF704708BF8242FD
:1051B00070474FF4001C1CEB410F38BF1CEB430F32
:1051C00001D28B42704770B500F0B2F892244900CA
:1051D0004FF000514FF08053FFF706BEDFF848C193
:1051E00070B51CEA111E1EBF1CEA13159EEA0C0FB7
:1051F00095EA0C0F00F06F8081EA030423EA4C1358
:105200004EEAD47E21EA4C1141F4801143F480131C
:10521000AE44A1FB024CA0FB0365AEF17F7E3619C4
:1052200055EB0C05A1FB034C4CF10003A0FB021C49
:1052300016EB0C06654153F10003094218BF46F016
:10524000010613F4007F0BD14FEA03314FEA05301A
:10525000340341EA155140EA16506FF003020AE0A8
:105260004FEAC3214FEAC520F40241EA555140EA12
:1052700056506FF0020202EB2E4201EB025585EA16
:10528000CE710AD05FEA440C18BF24F0004450F1FC
:10529000000041F1000120EAD47040F2FE7C62453A
:1052A00000D270BDA84214BF4FF080444FF040447C
:1052B000002E08BF0024BEF1806FA8BFA1F1C0413D
:1052C000BDE8704080F282804FF0000001F1C041E3
:1052D00001F0004170479EEA0C0F0CEA131518BF4D
:1052E00095EA0C0F06D04FF0000081EA030E0EF095
:1052F000004170BD00F01CF88900013E00F007B8C5
:1053000000F009B84FEA430C5FEA5C5C08D081EA20
:10531000030100F05BB84FEA410C5FEA5C5CF6D138
:105320004FF00000014970470000FF070000F87FC0
:105330000EF1020E2EF0030E5EF8046B364205D419
:10534000012A43EB030515F5001F12D8012841EB94
:10535000010C1CF5001F0CD80ED14FEAD17C15F5BD
:10536000001F0CEB4C0C0CF1020C08BF4CEBD37C77
:1053700004E04FF0080C01E04FEAD37C0CEB4C0545
:1053800026FA05F606F00706B6F1040C06D20EEB77
:10539000860CBDE870404CF0010C6047DFE80CF073
:1053A000090B02024FF000414FF00000A1F500216F
:1053B00070BD19461046012851EB010418BFD4F501
:1053C000001484BF002001F0004170BD0808A0F562
:1053D00000114FEA3101704753EA010C17D41CF554
:1053E000801F58BFBCF5801F00F106808B4218BF9C
:1053F000704708BF8242704707D713F5801F58BF18
:1054000011F5801F19D48B4270479B4270471CF5E1
:10541000801F08D5BCF5801FF7D5994218BF70478B
:1054200008BF904270474FF4001C1CEB430F38BF7D
:105430001CEB410F01D2994270470FB40CBC03BC66
:10544000FFF7C1BE91EA030F10B581F000413FF5AF
:1054500023AC83F0004300F009B8000010B591EAD6
:10546000030F48BF83F000433FF516AC841A71EB7D
:10547000030C07D212198CF0004C43EB0C03001BF9
:1054800061EB0C01DFF8A4E14FEA1154A4EB135CCB
:105490001EEA430F18BF9EEA445F00F0B08023EA83
:1054A0006E03524221EA0451C3EB6E0338BF5B1E08
:1054B000DCF1200E25D322FA0CFE10EB0E0043FA8D
:1054C0000CFE41EB0E01CCF1200E03FA0EFE10EBA8
:1054D0000E0051F10001CCF1200E29D412FA0EF287
:1054E00001EB0451BDE8104058BF7047401C1CBF81
:1054F000B2F1004F704700280CBF491C20F001009A
:10550000704712EB020E43EB030218BF4FF0010E7F
:105510004EEA4202ACF1200CDCF11E0E54D943FAE3
:105520000CFE10EB0E0051F1FF31CCF11E0ED5D563
:105530000EF1010E12FA0EFE404141EB010101EBAA
:10554000445C5FEA5C5C10D910EBDE7001EB045147
:1055500038BFBEF1004FBDE8104018BF70470028AB
:105560000CBF491C20F00100704730D24FEAD42C08
:1055700011F5001124F400641BD0B1FA81F20B3A4A
:10558000A41AA41ED2F12003914030FA03F3194368
:10559000904001EBCC71002C01EB0451BDE81040B0
:1055A000A8BF704701F1C0414FF0000001F0004179
:1055B0007047B0FA80F310FA03F100D110BDE41A7D
:1055C000173C4805C90AE4E701EB045110BD491036
:1055D00001EB0451BDE810404FEA300002E04FF00B
:1055E000000170474A0008BF0042F8D0B2F5001F22
:1055F00028BF704701F000414FF0000070479EEA5D
:10560000445F07D011EA5E0FBDE8104004BF0021DF
:1056100000207047BDE8104070B5FFF789FE00BF5D
:1056200040DFF63E83F00041104670470000E0FF87
:1056300043004FEAD30C4FEA3C0C43401FBF4007E6
:105640000CF1605113F0FE4F70471CF0006F03D156
:1056500000200CF0004170470CF0004343EA50700A
:1056600010B540EACC0000F026F900BF000000921F
:105670004FEA0001FFF7AABE4FF000414FF00000D3
:10568000A1F500217047000090EA010F48BF81F0AA
:10569000004100F16C81421A3CBF801A89184FEA20
:1056A000D0524FF07F4C1CEA410FA2EBD15318BFF0
:1056B0009CEA026F00F03B804FF0004C4CEA002067
:1056C0004CEA012121FA03FC10EB0C0C1ED202F172
:1056D000FF325FEA1C2040EBC25038BF70471CF01D
:1056E0007F0F4FEA400C18BFBCF17F4F38BF7047A7
:1056F000C3F12003994008BF20F00100BCF17F4FA7
:1057000038BF7047A0F1C04000F01BB94FEA3C0021
:10571000000A40EBC25028BF1CF0FF0F4FEA400CBC
:10572000E6D018BFBCF17F4F38BF7047EAE79CEA6C
:10573000026F05D010EA5C0F08BF00F00040704710
:1057400010B500F0B8F800BF64FBBE3EC10DD1F14A
:105750009E0206DB4FEA002343F0004323FA02F0E7
:105760007047004207D54FEA4001B1F1FE4F02D227
:105770004FF00000704710B500F09DF8499224806A
:10578000002070476FEA200070470000B0FA80F3F5
:1057900010FA03F2C3F19D030AD0D90501EB1220E0
:1057A000530638BF704700F1010008BF20F0010028
:1057B000704700004FF47F0C1CEAD0121EBF1CEA99
:1057C000D11392EA0C0F93EA0C0F00F0478090EA95
:1057D000010F48BF42F480724FF0004C4CEA0020A9
:1057E0004CEA012102EB0302A0FB0113A2F5000227
:1057F000002918BF43F001035B0028BF4FEA3303C1
:1058000042EB22425FEA132C4CEBC2502EBFBCEBA2
:10581000436FB2F57C0F70474FEA036CBCF1004F49
:1058200008BF20F00100B2F57C0F38BF70470BD5E0
:1058300082F0FF0212F5803FC8BF704700F1C04000
:10584000D8BF00F00040704700F5000C5FEA4C0C38
:1058500048BF7047B0F1C04000F073B890EA010F44
:105860000CEAD11348BF42F48072624538BF6345E9
:1058700004D280EA010000F00040704710B500F04B
:105880001AF800BF8900013E00F007B800F009B81F
:105890005FEA410C5FEA1C6C08D080EA010000F06E
:1058A00050B85FEA400C5FEA1C6CF6D14FF0004044
:1058B000A0F5800070470EF1020E2EF0030E5EF888
:1058C000044B244204D44FEA4102B2F17F4F11D875
:1058D0004FEA4003B3F17F4F0CD80ED14FEAD07C92
:1058E000B2F17F4F0CEB4C0C0CF1020C08BF4CEBEF
:1058F000D17C04E04FF0080C01E04FEAD17C0CEBC6
:105900004C0324FA03F404F00704B4F1040C06D2A7
:105910000EEB840CBDE810404CF0010C6047DFE852
:105920000CF0070802024FF00040A0F5800010BD07
:105930000846420018BFD2F1807288BF00F00040D4
:1059400010BDFF2141EAD050C005704780F00040F3
:1059500090EA010F7FF59FAE81F0004100F007B89B
:1059600090EA010F48BF81F000413FF594AE421A22
:1059700004D882F00042A0EB020011444FEAD0525A
:105980004FF07F4C1CEA410FA2EBD15318BF9CEAA9
:10599000026F4AD04FF0004C4CEA00204CEA012143
:1059A00021FA03FCB0EB0C0C0FD412F0FE0F36D032
:1059B0005FEA4C001DD5001240EBC25038BF704763
:1059C0001CF03F0F18BF70470BE0A2F101025FEA25
:1059D0001C2040EBC25038BF70471CF07F0F18BF2F
:1059E0007047C3F12003994014BF401E20F001000E
:1059F000704780084FEA122308BF7047B0FA80FC56
:105A0000A2EB0C02CCF1280C60FA0CF093EA122FF6
:105A100004BF00EBC25070474FEAC3707047130ACF
:105A20005FEADC1008BF7047F6E79CEA026F04D01B
:105A300010EA5C0F08BF0020704710B5FFF73BFF6E
:105A400040DFF63E81F0004070470CF00F03092B59
:105A500008BF082000F059800A2B0BD0082B18BF74
:105A6000704708BF1CF0400F0AD04FF000004FF005
:105A7000000170471CF0400F18BF4FF00040704706
:105A80001CF0100F08D020F0704300F07F4242EA73
:105A9000D3014FEA4370704700F0604021F07F422D
:105AA00042EA000201F07F4040EA727070474FF016
:105AB000FF0C4CF4E06C1CEA11531CBF9CEA030C75
:105AC0009445C2BFDA4201EB02517047002B0DD062
:105AD000BCF1000F0FD0002A01F00041A4BF41F03B
