:020000040800F2
:10000000D00900203D1900080D0700080F0700085F
:1000100013070008170700081B070008000000006E
:100020000000000000000000000000001F070008A2
:10003000210700080000000023070008250700082A
:1000400057190008571900085719000857190008D0
:1000500057190008571900085719000857190008C0
:1000600057190008571900085719000857190008B0
:1000700057190008571900085719000857190008A0
:100080005719000857190008571900085719000890
:100090005719000857190008571900085719000880
:1000A0005719000857190008571900085719000870
:1000B00057190008BF0E0008571900085719000803
:1000C0005719000857190008571900085719000850
:1000D000571900085B18000857190008571900083D
:1000E0005719000857190008571900085719000830
:1000F0005719000857190008571900085719000820
:10010000571900085719000857190008571900080F
:1001100057190008571900085719000857190008FF
:1001200057190008571900085719000857190008EF
:1001300000F002F800F05AF80AA090E8000C82449F
:100140008344AAF10107DA4501D100F04FF8AFF27C
:10015000090EBAE80F0013F0010F18BFFB1A43F0A5
:100160000103184718470000384700000A444FF0C1
:10017000000C10F8013B13F0070408BF10F8014B06
:100180001D1108BF10F8015B641E05D010F8016B4B
:10019000641E01F8016BF9D113F0080F1EBF10F8AF
:1001A000014BAD1C0C1B09D16D1E58BF01F801CBD2
:1001B000FAD505E014F8016B01F8016B6D1EF9D555
:1001C0009142D6D37047000000230024002500266A
:1001D000103A28BF78C1FBD8520728BF30C148BFAA
:1001E0000B6070471FB51FBD10B510BD03F02CFB91
:1001F0001146FFF7F7FF00F04FF803F05EFB03B482
:10020000FFF7F2FF03BC01F0EBF9000070B5054603
:100210000C465521E14802F0DBF800BF8021DF48A1
:1002200002F044F90028F9D00521DC4802F0D0F8AA
:1002300000BF8021D94802F039F90028F9D0062101
:10024000D64802F0C5F800BF8021D44802F02EF94C
:100250000028F9D02946D14802F0BAF800BF802121
:10026000CE4802F023F90028F9D0E1B2CB4802F0E1
:10027000AFF800BF8021C94802F018F90028F9D072
:10028000210AC64802F0A4F800BF8021C34802F04A
:100290000DF90028F9D070BD0027052500264FF084
:1002A00000084FF00109002401F030F9280201F0A4
:1002B00065FB4FF4E13001F0A2F94FF4E131B848A9
:1002C00001F0E9F900F020FB00F034FB00F0ECFC59
:1002D0004FF4E15141F2883000F06EFD0120B14948
:1002E0000860B149C1F8980101F046F800F01BFF21
:1002F000AEA20021084600F0B8FFB0A20321002002
:1003000000F0B3FF05F1300203213C2000F02BFF89
:10031000ACA203214B2000F0A8FFACA206210020D4
:1003200000F0A3FF39E19F48001D006808B90120D3
:1003300000E000209B49091D0860012000F029FB16
:100340000746002F78D0082F75D2DFE807F0740435
:10035000070A0D1031524FF001086CE04FF002080F
:1003600069E04FF0030866E04FF0040863E0601CAA
:1003700084B20A2C02DA4FF0050818E0142C14DDC0
:10038000701CC6B21524012E11D101210C20FFF7DB
:100390003DFF92A003F01AFA93A20021084600F054
:1003A00064FF642001F0EFF801E04FF0000842E044
:1003B000601C84B20A2C02DA4FF0060818E0142CF4
:1003C00014DD1524701CC6B2012E11D101210D209F
:1003D000FFF71CFF89A003F0F9F98BA20021084662
:1003E00000F043FF642001F0CEF801E04FF0000878
:1003F00021E0601C84B20A2C02DA4FF0070819E0F1
:10040000142C15DD1524701CC6B2012E12D1012149
:100410000E20FFF7FBFE81A003F0D8F982A2002195
:10042000084600F022FF642001F0ADF802E003E08E
:100430004FF0000800BF68E000240026B8F1080F64
:1004400060D2DFE808F05F04111E2B38455201210D
:100450000846FFF7DBFE79A20021084600F005FF01
:100460007AA003F0B3F94DE001210220FFF7CEFEA0
:1004700078A20021084600F0F8FE7BA003F0A6F960
:1004800040E001210320FFF7C1FE79A200210846C8
:1004900000F0EBFE7BA003F099F933E0012104208A
:1004A000FFF7B4FE79A20021084600F0DEFE7CA032
:1004B00003F08CF926E001210520FFF7A7FE7AA2C0
:1004C0000021084600F0D1FE7CA003F07FF919E07E
:1004D00001210620FFF79AFE79A20021084600F0CC
:1004E000C4FE7CA003F072F90CE001210720FFF7A5
:1004F0008DFE79A20021084600F0B7FE7BA003F034
:1005000065F900BF00BF4FF0000879480078E0B3FC
:10051000012802D002283CD11BE0B9F1000F17D00E
:1005200001210820FFF772FE72A003F04FF9FF20AF
:100530006F490870681CC5B2072D00DD072505F15D
:100540003000C2B203213C2000F00DFE4FF0000944
:100550001FE0B9F1000F17D001210920FFF756FE67
:1005600067A003F033F9FF2061490870681EC5B227
:10057000012D00DA012505F13000C2B203213C2033
:1005800000F0F1FD4FF0000903E0FFE74FF0010933
:1005900000BF00BF0A2000F0F6FFC4E600380140AB
:1005A00000480040948121420080214253746174CC
:1005B000653A53746F702020200000005370656509
:1005C000643A000047656172000000004E4F20420F
:1005D00055472C434F4D45204F4E00006B657934F5
:1005E0006C6F6E67200D0A0053746174653A4B6539
:1005F00079345F4C6F6E6720000000006B657935C1
:100600006C6F6E670D0A000053746174653A4B6538
:1006100079355F6C6F6E6720000000006B6579367E
:100620006C6F6E670D0A000053746174653A526511
:100630007365742020202020000000005374617432
:10064000653A436F6D652D757020200046726F6EA0
:10065000740D0A0053746174653A446976696E6773
:1006600020202020000000004261636B0D0A000082
:1006700053746174653A5475726E206C65667420AB
:10068000000000004C6566740D0A0000537461742C
:10069000653A5475726E20726967687400000000D4
:1006A00052696768740D0A0053746174653A476F44
:1006B00020666F727761726400000000340D0A00DA
:1006C00053746174653A53746F7020202020202089
:1006D00000000000350D0A0053746174653A4C69DE
:1006E000667420202020202000000000360D0A0023
:1006F0003800002053706565642075700D0A000095
:10070000536C6F7720646F776E0D0A00704700BFDF
:10071000FEE700BFFEE700BFFEE700BFFEE7704751
:1007200070477047704700000CB5002001900090A2
:100730006C48006840F480306A49086000BF69482E
:10074000006800F4003000900198401C019000986F
:1007500018B90198B0F5A06FF1D16248006800F4B3
:10076000003010B10120009001E0002000900098BE
:10077000012843D15C48006840F010005A490860E5
:100780000846006820F0030008600846006840F052
:100790000200086053484068524948600846406873
:1007A00048600846406840F48060486008464068F9
:1007B00020F47C1048600846406840F4E810486027
:1007C0000846006840F08070086000BF4548006837
:1007D00000F000700028F9D04248406820F0030083
:1007E000404948600846406840F00200486000BF49
:1007F0003C48406800F00C000828F9D10CBD10B549
:10080000FFF792FF10BD10B53648006840F00100B8
:100810003449086008464068344908403149486016
:1008200008460068324908402E49086008460068BA
:1008300020F4802008600846406820F4FE004860EC
:100840004FF41F008860FFF7DAFF4FF0006029497E
:10085000086010BD10B5002100200022214B5B680C
:1008600003F00C0121B1042906D0082928D107E0A2
:10087000214B224C236027E01F4B204C236023E0B8
:10088000184B5B6803F47010164B5B6803F48032FE
:10089000022303EB904022B9194B4343174C2360CA
:1008A0000DE0104B5B6803F4003323B1144B43435A
:1008B000124C236003E0104B4343104C236003E0D1
:1008C0000D4B0E4C236000BF00BF064B5B68C3F3AB
:1008D00003130C4CE15C094B1B68CB40074C2360B5
:1008E00010BD000000100240002002400000FFF890
:1008F000FFFFF6FE08ED00E000127A000000002085
:1009000000093D000400002008B50121082001F085
:10091000BFFB6020ADF8000010208DF8030003201D
:100920008DF802006946024801F0F6F808BD0000A3
:10093000000C014008B50121182001F0A9FB4FF47B
:100940007040ADF8000048208DF803006946C648A5
:1009500001F0E2F80120C5490860C549C1F8B401B9
:10096000C24908310860C249C1F8BC014FF4E070C7
:10097000ADF8000048208DF803006946BD4801F03D
:10098000CBF80120BC490860091D0860091D0860FA
:1009900008BD10B5044614B10120B8490870B74825
:1009A0000078002864D04FF40051AF4801F047F9B7
:1009B00008B34FF40041AC4801F041F9D8B14021EF
:1009C000AC4801F03CF9B0B18021AA4801F037F9F8
:1009D00088B14FF48071A74801F031F958B14FF454
:1009E0008041A14801F02BF928B14FF480519E4875
:1009F00001F025F998BB0A2000F0C5FD00209F49B1
:100A000008704FF48041984801F019F908B90120A5
:100A100010BD4FF48051944801F011F908B902203B
:100A2000F6E74FF40051904801F009F908B90320A6
:100A3000EEE74FF400418C4801F001F908B90420B9
:100A4000E6E740218B4801F0FAF808B90520DFE716
:100A50008021884801F0F3F810B90620D8E707E0B4
:100A60004FF48071834801F0EAF870BB0720CFE7AC
:100A70004FF400517C4801F0E2F8012825D1C10370
:100A8000794801F0DCF801281FD14021794801F0B4
:100A9000D6F8012819D18021764801F0D0F8012834
:100AA00013D10102734801F0CAF801280DD1810366
:100AB0006D4801F0C4F8012807D101036A4801F02C
:100AC000BEF810B901206D4908700020A0E710B5EC
:100AD00004464FF48041644801F0B1F828B96848F1
:100AE0000088401C6649088002E0002064490880B4
:100AF0004FF480415C4801F0A2F828B961480078C1
:100B000010B901205F4908705F480078B0B95D48AE
:100B10000078012807D15D480078401C5B490870C7
:100B200001205949087059480078022806D1002050
:100B30005649087056490880082010BD4FF480417E
:100B4000494801F07CF8012804D100204D49087083
:100B50004D4908704D48007801281CD14C48008848
:100B6000401C4B49088008460088A0420ADD4448E2
:100B70000088A04206DA00204449087044490880F1
:100B80000A20DAE73E480088A04204DD00203F4901
:100B900008703F4908800020CFE710B504464FF4A5
:100BA0008051314801F04BF828B93A480088401C80
:100BB0003849088002E00020364908804FF480510F
:100BC000294801F03CF828B93348007810B90120D1
:100BD0003149087031480078B0B92F4800780128B1
:100BE00007D12F480078401C2D49087001202B495F
:100BF00008702B480078022806D100202849087088
:100C000028490880082010BD4FF48051164801F093
:100C100016F8012804D100201F4908701F490870E8
:100C20001F48007801281CD11E480088401C1D491F
:100C3000088008460088A0420ADD16480088A042C5
:100C400006DA002016490870164908800A20DAE7FB
:100C500010480088A04204DD0020114908701149A5
:100C600008800020CFE70000000C0140B081214245
:100C7000008021420010014098012242140000200F
:100C80001A00002015000020160000201700002088
:100C900018000020220000201C0000201D00002061
:100CA0001E0000202000002000B587B001214FF475
:100CB000047001F0EDF94FF4004001F04DF901200E
:100CC000ADF8040000208DF8070001A9384800F0B5
:100CD00023FF0220ADF8040000208DF8070001A9D1
:100CE000334800F019FF0420ADF8040000208DF80F
:100CF000070001A92E4800F00FFF2E4801F030FC3C
:100D0000002002908DF80C008DF80D004FF460204B
:100D100004900020059001208DF8180002A92548B4
:100D200001F045FC0121234801F06DFC214801F050
:100D30008CFC00BF1F4801F08DFC0028FAD11D4833
:100D400001F092FC00BF1B4801F093FC0028FAD18F
:100D500007B000BD10B504460723012221461548FF
:100D600001F0BDFC0121134801F08DFC00BF022100
:100D7000104801F0F9FD0028F9D00E4801F016FDE9
:100D800010BD2DE9F04107460C460025002608E07D
:100D90003846FFF7DFFF0544052000F0F4FB701C28
:100DA000C6B2A642F4DBB5FBF4F080B2BDE8F08138
:100DB00000100140002401407FB505460C4601218A
:100DC000022001F072F9ADF80850ADF8044000209F
:100DD000ADF80A00ADF8060001A98F4801F0BCFE8D
:100DE000012211468C4802F02EFA1D208DF80000D9
:100DF00000208DF8010003208DF8020001208DF8FD
:100E00000300684600F0BFFD0121834802F000FAAC
:100E10007FBD70B502268149086803F099F8044641
:100E200000227F4B02F03AFE29D27C49086803F089
:100E30008FF8044600227B4B02F06AFF1FD27749ED
:100E4000486803F085F804460022774B02F026FE3E
:100E500003D201207549087030E07049486803F0FA
:100E600077F804460022724B02F052FF03D20220B0
:100E70006E49087022E000206C4908701EE0674946
:100E8000086803F065F804460022694B02F040FF51
:100E900003D203206549087010E06049086803F038
:100EA00057F804460022604B02F0F8FD03D20420FC
:100EB0005E49087002E000205C49087070BD2DE9B1
:100EC000F0410121544802F06CFC00287DD05948C3
:100ED0000078401C5749087001214F4802F072FC0D
:100EE0005448007805280AD15348006808B9012001
:100EF00000E000205049086000204E4908700A2197
:100F00000846FFF73EFF4D4908800846008803F079
:100F10004BF8804603F01CF806460022484B02F0CE
:100F2000F9FD044602F0D4FC464908600846006812
:100F300003F00EF8064600224FF0804302F01EFF39
:100F4000044602F0C5FC3F4908600846006802F00C
:100F5000FFFF04464FF033323B4B02F09FFD0DD2B2
:100F60003848006802F0F4FF04464FF03332374B44
:100F700002F0CEFE02D200203249086031480068FB
:100F8000264908600A210B20FFF7FBFE3049088044
:100F90000846008803F008F8804602F0D9FF0646AC
:100FA0000022274B02F0B6FD044602F091FC2549D1
:100FB00008600846006802F0CBFF064600224FF0AA
:100FC000804302F0DBFE044600E022E002F080FCF9
:100FD0001C4908600846006802F0BAFF04464FF05A
:100FE0003332194B02F05AFD0DD21648006802F058
:100FF000AFFF04464FF03332144B02F089FE02D2A9
:101000000020104908600F48006804494860FFF755
:1010100000FFBDE8F0810000000400403000002027
:101020000000E03F0000E0BF0000F8BF38000020F3
:101030000000F83F39000020948121422400002064
:101040000000503F2C0000203333C33F3333C3BF75
:101050002600002070B504460E4626B10421FE4845
:1010600000F007FE03E00421FB4800F004FE082125
:10107000F94800F000FE002517E00821F74800F0CD
:10108000FAFD04F0800020B10121F34800F0F1FDE9
:1010900003E00121F04800F0EEFD0821EF4800F0E8
:1010A000E8FD6006040E681CC5B2082DE5DB0821CA
:1010B000E94800F0DEFD0421E74800F0DAFD70BDEC
:1010C00070B504460D4605F1B001C8B20021FFF726
:1010D000C1FF102141EA14100021FFF7BBFF04F00B
:1010E0000F0141F001000021FFF7B4FF70BD10B502
:1010F00000218D20FFF7AEFF00211420FFF7AAFF8B
:101100000021AF20FFF7A6FF10BD10B500218D20F4
:10111000FFF7A0FF00211020FFF79CFF0021AE2069
:10112000FFF798FF10BD70B5002419E004F1B0017D
:10113000C8B20021FFF78EFF00210220FFF78AFFCF
:1011400000211020FFF786FF002505E00121002087
:10115000FFF780FF681CC5B2802DF7DB601CC4B2AE
:10116000082CE3DB70BD2DE9F04107460E469046A2
:1011700000250024A8F12000C5B27F2F02DD002742
:10118000B01CC6B231463846FFF79AFF002408E08B
:1011900004EB0511B24A505C0121FFF75BFF601CB4
:1011A000C4B2082CF4DB701CC1B23846FFF788FFCC
:1011B000002409E004EB05110831A94A505C012123
:1011C000FFF748FF601CC4B2082CF3DBBDE8F081D8
:1011D00010B50246012000E050430B00A1F10104CC
:1011E000E1B2F9D110BD2DE9FF5F074691461D46DA
:1011F0000E9E4FF0000A002433E0281B401EC1B2AF
:101200000A20FFF7E5FFB9FBF0F00A21B0FBF1F28D
:1012100001FB1208BAF1000F13D1681EA04210DDC5
:10122000B8F1000F0BD1B34606EBDB71491001FB9F
:101230000471C8B220220199FFF795FF0FE04FF02B
:10124000010AB34606EBDB71491001FB0471C8B219
:1012500008F13001CAB20199FFF785FF00BF601C99
:10126000C4B2AC42C9DBBDE8FF9F2DE9F0410446A2
:101270000F46154600260EE0AA5D39462046FFF7C8
:1012800072FF04F10800C4B2782C02DD0024B81CFF
:10129000C7B2701CC6B2A85D0028EDD1BDE8F081D0
:1012A0002DE9F04180460E4615460027314640465E
:1012B000FFF706FF00240AE06A4A02EB8511085D89
:1012C0000121FFF7C7FE781CC7B2601CC4B2102C06
:1012D000F2DB701CC1B24046FFF7F2FE00240CE0C6
:1012E0006900491C5F4A02EB4111085D0121FFF7CB
:1012F000B1FE781CC7B2601CC4B2102CF0DBBDE894
:10130000F0812DE9F05F06460F4690461C46DDF859
:1013100028A04FF0000BE11704EB5171C910A4EBAA
:10132000C10131B92046E11704EB5171C1F3C70582
:1013300006E02046E11704EB5171C910491CCDB2FB
:101340003D4615E029463046FFF7BAFEB1460BE0B0
:1013500059460BF1010B1AF801000121FFF77AFE43
:1013600009F1010000F0FF09C145F1DB681CC5B2BD
:10137000A542E7DBBDE8F09F08B50121142000F08D
:1013800087FE0121084600F083FE0121364800F067
:1013900094FC0F20ADF8000010208DF8030003200E
:1013A0008DF8020069462C4800F0B6FB0F212A4850
:1013B00000F05FFC0820ADF800006946274800F007
:1013C000ABFB0821254800F054FC0221224800F024
:1013D00050FC642000F0D7F802211F4800F04BFCBD
:1013E000642000F0D0F802211B4800F042FC0021EC
:1013F000AE20FFF72FFE00210220FFF72BFE002179
:101400001020FFF727FE00214020FFF723FE0021D8
:101410008120FFF71FFE0021CF20FFF71BFE0021D8
:10142000A120FFF717FE0021C820FFF713FE0021BF
:10143000A620FFF70FFE0021A820FFF70BFE0021DA
:101440003F20FFF707FE00218120FFF703FE002168
:10145000FF20FFF7FFFD09E00008014000100140F8
:101460008C4200083A000020000230000021D32006
:10147000FFF7F0FD00210846FFF7ECFD0021D52025
:10148000FFF7E8FD00218020FFF7E4FD0021D920CF
:10149000FFF7E0FD0021F120FFF7DCFD0021DA205D
:1014A000FFF7D8FD00211220FFF7D4FD0021DB203B
:1014B000FFF7D0FD00214020FFF7CCFD00212020C8
:1014C000FFF7C8FD00210220FFF7C4FD00218D2099
:1014D000FFF7C0FD00211420FFF7BCFD0021A42070
:1014E000FFF7B8FD0021A620FFF7B4FD0021AF20D3
:1014F000FFF7B0FD0021AF20FFF7ACFDFFF713FEB3
:1015000000210846FFF7DCFD08BD000010B56FF0B4
:10151000040000F082FA2E4800682E49B0FBF1F07A
:101520002D4908700846007800EB4001C1EBC0105F
:101530004FF6FF7101EAC0002849088010BD01463E
:10154000254A12784A434FF0E0235A6100229A61FB
:101550001A46126942F001021A6100BF4FF0E02200
:10156000106900F001021AB100F48032002AF5D0AF
:101570004FF0E022126922F001024FF0E0231A61DD
:1015800000229A6170470146144A12884A434FF07C
:10159000E0235A6100229A611A46126942F0010260
:1015A0001A6100BF4FF0E022106900F001021AB189
:1015B00000F48032002AF5D04FF0E022126922F0C8
:1015C00001024FF0E0231A6100229A617047000087
:1015D0000000002000127A00FA010020FC01002027
:1015E000014600BF704700BFA64A128802F04002C1
:1015F000002AF9D0C2B2A34B1B1D1A80704710B548
:1016000086B00446012144F2040000F041FD4FF48D
:101610000070ADF8140003208DF8160018208DF826
:10162000170005A9984800F077FA4FF48060ADF8EC
:10163000140004208DF8170005A9934800F06CFAF7
:1016400025208DF8000003208DF801008DF80200A0
:1016500001208DF80300684600F095F90194002000
:10166000ADF80800ADF80A00ADF80C00ADF81000B8
:101670000C20ADF80E0001A9844800F0B0FD012255
:1016800040F22551814800F042FE01217F4800F0E0
:1016900032FE06B010BD30B587B004460D467B481B
:1016A00084421ED1012144F2050000F0F1FC032028
:1016B0008DF81A006015ADF8180018208DF81B0081
:1016C00006A9714800F028FA04208DF81B000002DA
:1016D000ADF8180006A96C4800F01EFA25208DF818
:1016E00004006B48844221D10121052000F0D0FC88
:1016F0000121480400F0D9FC03208DF81A000420D1
:10170000ADF8180018208DF81B0006A95E4800F0FF
:1017100003FA04208DF81B000820ADF8180006A974
:10172000594800F0F9F926208DF804005548844204
:1017300021D10121092000F0ABFC0121880400F037
:10174000B4FC03208DF81A002015ADF818001820FD
:101750008DF81B0006A94F4800F0DEF904208DF833
:101760001B004002ADF8180006A94A4800F0D4F961
:1017700027208DF804004848844221D101211120FE
:1017800000F086FC0121C80400F08FFC03208DF8D6
:101790001A002015ADF8180018208DF81B0006A9B6
:1017A0003E4800F0B9F904208DF81B004002ADF866
:1017B000180006A9394800F0AFF934208DF804006C
:1017C0003748844220D10121312000F061FC012101
:1017D000080500F06AFC03208DF81A00A014ADF88B
:1017E000180018208DF81B0006A92C4800F094F969
:1017F00004208DF81B00ADF8180006A9294800F058
:101800008BF935208DF8040002950020ADF80C000E
:10181000ADF80E00ADF81000ADF814000C20ADF8D6
:10182000120002A9204600F0DAFC00208DF8050025
:1018300003208DF8060001208DF8070001A800F0B4
:10184000A2F8012240F22551204600F060FD01215E
:10185000204600F050FD07B030BD10B540F22551D4
:101860000A4800F039FE60B1084800F0B5FDC4B286
:101870000D4890F84200402803D021460A4800F065
:1018800029F810BD00480040000801400038014020
:1018900000440040000C0140004C0040001001409A
:1018A00000500040001401401C020020014691F845
:1018B00040000A5C11F8403F581CC31700EB9363CB
:1018C0009B11A0EB83130B708878401E8870403901
:1018D000104670470A4690F84110425410F8413FB4
:1018E000591CCB1701EB93639B11A1EB831303707E
:1018F0004178491C417041387047002100F8401F71
:10190000417081704038704770B504460EE0204643
:10191000FFF7CCFF05462946074800F059FD00BFF8
:101920008021054800F0C2FD0028F9D094F842005B
:101930000028ECD170BD0000003801400948804704
:1019400009480047FEE7FEE7FEE7FEE7FEE7FEE7A1
:10195000FEE7FEE7FEE7FEE704480549054A064BB9
:10196000704700000708000831010008D00300207C
:10197000D0090020D0050020D005002031490143C6
:10198000314A1160704770B5002100230F22C478DE
:1019900004B32D4C246804F4E064C4F5E064210A27
:1019A000C1F10403CA40447804FA03F18478144076
:1019B00021430901254C0678A155047804F01F0540
:1019C0000124AC4005786D11AD0005F1E025C5F8A6
:1019D000004109E0047804F01F050124AC401C4DCF
:1019E0000678761145F8264070BD1A4A0A4002432F
:1019F000154B1B1F1A60704739B1134A121D12682C
:101A00000243114B1B1D1A6006E00F4A121D12689B
:101A100082430D4B1B1D1A607047042808D14FF0FC
:101A2000E021096941F004014FF0E022116107E073
:101A30004FF0E021096921F004014FF0E02211612B
:101A4000704700000000FA050CED00E000E400E043
:101A500080E100E080FFFF1F10B50446CC488442BF
:101A600008D10121042000F02DFB0021042000F00A
:101A700029FB46E0C748844208D10121082000F034
:101A800021FB0021082000F01DFB3AE0C2488442FF
:101A900008D10121102000F015FB0021102000F0DA
:101AA00011FB2EE0BD48844208D10121202000F026
:101AB00009FB0021202000F005FB22E0B848844209
:101AC00008D10121402000F0FDFA0021402000F063
:101AD000F9FA16E0B348844208D10121802000F0D1
:101AE000F1FA0021802000F0EDFA0AE0AE488442CD
:101AF00007D10121801500F0E5FA0021A01500F0C2
:101B0000E1FA10BD10B50121084600F0DBFA002112
:101B1000012000F0D7FA10BD2DE9F0410246002562
:101B20000026002000230024002791F803C00CF0B9
:101B30000F0591F803C00CF0100CBCF1000F03D09E
:101B400091F802C04CEA050591F800C0BCF1000F05
:101B500031D0146800202BE04FF0010C0CFA00F398
:101B6000B1F800C00CEA03069E4220D183004FF07A
:101B70000F0C0CFA03F7BC4305FA03FC4CEA04040F
:101B800091F803C0BCF1280F06D14FF0010C0CFAFC
:101B900000FCC2F814C00AE091F803C0BCF1480F81
:101BA00005D14FF0010C0CFA00FCC2F810C0401C2B
:101BB0000828D1D31460B1F800C0BCF1FF0F34DDA8
:101BC000546800202EE000F1080C4FF0010808FADC
:101BD0000CF3B1F800C00CEA03069E4221D1830049
:101BE0004FF00F0C0CFA03F7BC4305FA03FC4CEA68
:101BF000040491F803C0BCF1280F05D100F1080CD2
:101C000008FA0CF8C2F8148091F803C0BCF1480F30
:101C100007D100F1080C4FF0010808FA0CF8C2F8DF
:101C20001080401C0828CED35460BDE8F0814FF6E8
:101C3000FF710180022181700421C170704702464A
:101C4000002093680B400BB1012000E0002070479A
:101C50000146886880B2704702460020D3680B4076
:101C60000BB1012000E0002070470146C86880B237
:101C7000704701617047416170470AB1016100E03E
:101C800041617047C16070474FF480320A438261FE
:101C90008161826182698269704702460020434BFC
:101CA00018684FF68073184040EA021008433F4B13
:101CB000186070473E49C8617047F0B50A46002376
:101CC00000240021002500F00046B6F1004F02D1AB
:101CD000364EF16901E0354E7168C0F3034583B2B9
:101CE00000F44016B6F5401F08D121F070612F4E68
:101CF000766826F070662D4F7E6012E000F4801644
:101D0000B6F5801F06D1032606FA05F4A14341F07B
:101D1000706106E0460D360103FA06F6B14341F064
:101D2000706122B1460D360103FA06F6314300F028
:101D30000046B6F1004F02D11C4EF16101E01B4E8E
:101D40007160F0BD30B500228B071C0F0F2303FA22
:101D500004F2164B08338C1053F824309343134C81
:101D600008348D1044F8253023468C1053F8243065
:101D70008C07240F00FA04F423430C4C08348D1014
:101D800044F8253030BD0A49DC3108607047000056
:101D900000080140000C0140001001400014014007
:101DA00000180140001C01400020014000000140DB
:101DB00000002042DF48006840F00100DD49086073
:101DC00008464068DC490840DA494860084600682F
:101DD000DA490840D74908600846006820F48020A6
:101DE00008600846406820F4FE0048604FF41F0079
:101DF00088607047CF49096821F48031CD4A11606D
:101E00001146096821F480211160B0F5803F03D0AC
:101E1000B0F5802F0ED106E0C649096841F4803143
:101E2000C44A116007E0C349096841F4A021C14ACE
:101E3000116000E000BF00BF704710B501460022EE
:101E4000002300204A11012A02D1BA4C236806E07F
:101E5000022A02D1B74C236A01E0B64C636A01F052
:101E60001F02012494401C400CB1012000E000201E
:101E700010BD38B5002000900024002500BF31209F
:101E8000FFF7DBFF05460098401C00900098B0F576
:101E9000A06F01D0002DF2D03120FFF7CEFF08B1A6
:101EA000012400E00024204638BD01460020A14A5C
:101EB000106820F0F80040EAC10010607047A049A7
:101EC00008607047024600209A4B586820F47C1046
:101ED00042EA01031843974B5860704798490866D7
:101EE000704701460020934A506820F003000843E1
:101EF000506070478F48406800F00C007047014602
:101F000000208C4A506820F0F00008435060704771
:101F100001460020874A506820F4E0600843506082
:101F2000704701460020834A506820F4605040EA20
:101F3000C1005060704729B17E4A527A02437D4BFE
:101F40005A7204E07B4A527A82437A4B5A72704743
:101F50007B49D8310860704701460020754A5068B7
:101F600020F440400843506070470021714A2032FD
:101F70001170704A82F82010012802D004280AD17A
:101F800004E001216B4A2032117005E00521694A05
:101F90002032117000E000BF00BF7047694908603F
:101FA00070476449096A0143624A11627047654992
:101FB00044390860704730B5002100220024002316
:101FC0005C4D6D6805F00C0121B1042905D008298C
:101FD00023D105E05C4D056022E05B4D05601FE00C
:101FE000544D6D6805F47012524D6D6805F48034DF
:101FF000022505EB92421CB9544D554305600BE098
:102000004C4D6D6805F400351DB1504D55430560CC
:1020100002E04D4D5543056002E04B4D056000BFA9
:1020200000BF444D6D6805F0F0010909484D6B5C37
:102030000568DD4045603F4D6D6805F4E061090AC3
:10204000434D6B5C4568DD4085603A4D6D6805F435
:102050006051C90A3E4D6B5C4568DD40C560354D39
:102060006D6805F44041890B3A4D6B5CC568B5FB62
:10207000F3F5056130BD29B12E4A526902432D4B5B
:102080005A6104E02B4A526982432A4B5A617047D5
:1020900029B1284A92690243264B9A6104E0254AF5
:1020A00092698243234B9A61704729B1214AD269D0
:1020B0000243204BDA6104E01E4AD26982431D4B81
:1020C000DA61704729B11B4AD2680243194BDA60C2
:1020D00004E0184AD2688243164BDA60704729B18F
:1020E000144A12690243134B1A6104E0114A12693F
:1020F0008243104B1A61704712494039086070479B
:102100000F49C86470470B49C87170470948406A55
:1021100040F0807007494862704701460020054A38
:1021200092680A400AB1012000E00020704701498E
:1021300088727047001002400000FFF8FFFFF6FEB3
:10214000000042428004424200127A0000093D0031
:10215000060200201602002010B50446FB48844207
:1021600009D101218803FFF7ADFF00214FF4804022
:10217000FFF7A8FF32E0F648844209D10121480464
:10218000FFF7ADFF00214FF40030FFF7A8FF25E077
:10219000F048844209D101218804FFF7A0FF002103
:1021A0004FF48020FFF79BFF18E0EB48844209D1F1
:1021B0000121C804FFF793FF00214FF40020FFF72F
:1021C0008EFF0BE0E548844208D101210805FFF7A6
:1021D00086FF00214FF48010FFF781FF10BD2DE92D
:1021E000F04786B005460E460024A24600BFA14631
:1021F0000027B08900B100BF2F462C8A4CF6FF7033
:102200000440F08804432C82AC894EF6F31004405D
:10221000B08831890843718908430443AC81AC8A92
:102220004FF6FF400440B0890443AC8201A8FFF799
:10223000C2FEC648874202D1DDF810A001E0DDF8F9
:102240000CA0A88900F4004040B10AEBCA0000EBE2
:102250000A1031684900B0FBF1F807E00AEBCA0048
:1022600000EB0A1031688900B0FBF1F86420B8FB7C
:10227000F0F004012009642101FB1089A88900F411
:10228000004040B1322000EBC900B0FBF1F000F09B
:102290000700044308E0322000EB09106421B0FB82
:1022A000F1F000F00F0004432C8106B0BDE8F08788
:1022B0004FF41651016000218180C18001810C2101
:1022C000418100218181704710B502460020108AAB
:1022D0004FF2FF0318400B884C8823438C8823431C
:1022E000CC8823431843108210BD00210180418017
:1022F0008180C180704721B1828942F4005282817D
:1023000004E082894DF6FF731A4082817047F0B570
:102310000346002400260025002040F66A17B94233
:1023200000D100BF1846C1F3421401F01F06012777
:1023300007FA06F5012C01D10C3004E0022C01D182
:10234000103000E014301AB107682F43076002E034
:102350000768AF430760F0BD1AB1838A0B438382DD
:1023600002E0838A8B4383827047028A4FF6F073C0
:102370001A400282028A0A430282704782894FF21F
:10238000FF731A40828182890A438281704721B19A
:10239000828942F00202828104E082894FF6FD7355
:1023A0001A4082817047028A4FF6DF731A40028218
:1023B000028A0A430282704721B1028A42F48042B3
:1023C000028204E0028A4BF6FF731A4002827047D1
:1023D000C1F308028280704701468888C0F3080074
:1023E0007047818941F0010181817047028BD2B22F
:1023F0000283028B42EA012202837047028B02F4BD
:102400007F420283028B0A430283704721B1828A92
:1024100042F02002828204E0828A4FF6DF731A4083
:102420008282704721B1828A42F01002828204E0E7
:10243000828A4FF6EF731A408282704721B1828AF6
:1024400042F00802828204E0828A4FF6F7731A4053
:102450008282704721B1828942F40042828103E086
:102460008289C2F30E028281704721B1828A42F4CE
:102470000062828204E0828A4FF2FF731A408282F5
:102480007047828A4FF6FB731A408282828A0A431F
:102490008282704721B1828A42F00202828204E085
:1024A000828A4FF6FD731A408282704702460020EE
:1024B000B1F5007F00D100BF13880B400BB10120A4
:1024C00000E00020704701F40072B2F5007F00D1F7
:1024D00000BFCA430280704770B502460024002343
:1024E0000025002040F66A16B14200D100BFC1F3BA
:1024F000421501F01F03012606FA03F3012D02D154
:102500009689334006E0022D02D1168A334001E05D
:10251000968A33400C12012606FA04F416883440D9
:1025200013B10CB1012000E0002070BD10B50022F5
:10253000002340F66A14A14200D100BF0A12012410
:102540009440A3B2DC43048010BD00000038014079
:102550000044004000480040004C00400050004053
:1025600010B50446FA48844208D101214015FFF70E
:10257000A9FD00216015FFF7A5FD17E0F54884428D
:1025800008D101210015FFF79DFD00212015FFF75F
:1025900099FD0BE0F048844208D10121C803FFF700
:1025A00091FD00214FF40040FFF78CFD10BD30B5C8
:1025B0000246002000235068E84C20400D790C684A
:1025C00044EA0524204350609068E54C2040D1E95E
:1025D00002542C434D7944EA450420439060D06A6C
:1025E00020F470000C7C641EE4B2234340EA0350E4
:1025F000D06230BD00210160017141718160C16014
:1026000001210174704721B1826842F001028260A9
:1026100003E0826822F001028260704721B1826883
:1026200042F48072826003E0826822F480728260E9
:10263000704710B50023CBB21AB144681C43446004
:1026400002E044689C43446010BD816841F0080189
:1026500081607047014600208A6802F008020AB1D2
:10266000012000E000207047816841F00401816092
:102670007047014600208A6802F004020AB1012076
:1026800000E00020704721B1826842F4A00282601D
:1026900003E0826822F4A0028260704701460020B5
:1026A0008A6802F480020AB1012000E0002070472D
:1026B00010B50A4600210023416821F46041531EF1
:1026C00041EA4331416010BD21B1426842F40062E9
:1026D000426003E0426822F4006242607047F0B555
:1026E00004460D4600200021092D11DDE068A5F10A
:1026F0000A0606EB4607072606FA07F18843A5F106
:102700000A0606EB460603FA06F10843E0600CE011
:10271000206905EB4507072606FA07F1884305EB14
:10272000450603FA06F108432061072A0FDA606BB9
:10273000561E06EB86071F2606FA07F18843561E2B
:1027400006EB860605FA06F10843606322E00D2ACF
:102750000FDA206BD61F06EB86071F2606FA07F155
:102760008843D61F06EB860605FA06F10843206368
:1027700010E0E06AA2F10D0606EB86071F2606FAB6
:1027800007F18843A2F10D0606EB860605FA06F16D
:102790000843E062F0BD21B1826842F48012826099
:1027A00003E0826822F48012826070470146C86CA0
:1027B00080B2704766484C300068704721B142686B
:1027C00042F48062426003E0426822F48062426028
:1027D000704721B1426842F48052426003E042688F
:1027E00022F48052426070470A460021816821F439
:1027F000E04111438160704721B1826842F4004298
:10280000826003E0826822F400428260704721B156
:10281000826842F40212826003E0826822F40212AB
:1028200082607047014600208A6802F400120AB1F3
:10283000012000E000207047F0B504461546002056
:1028400000220026092911DDE068A1F10A0707EB43
:10285000470C072707FA0CF29043A1F10A0707EB90
:10286000470703FA07F21043E0600CE0206901EB30
:10287000410C072707FA0CF2904301EB410703FADA
:1028800007F210432061A06BC0F30156EF1C06F164
:10289000010CA7EB0C0707EB870C1F2707FA0CF2BC
:1028A0009043EF1C06F1010CA7EB0C0707EB870721
:1028B00001FA07F21043A063F0BD10B50A460021EB
:1028C0000023816B21F44011531E41EA03518163BF
:1028D00010BD08B5002300930090009B0B440093AB
:1028E000009B1A6008BD08B50246002000900092C7
:1028F00001F12800009B184400900098006880B205
:1029000008BD0A4600214168164B19401143416039
:1029100070474162826270470A460021416821F097
:102920001F0111434160704740B1094908310968EE
:1029300041F40001064A0832116007E004490831F9
:10294000096821F40001024A083211607047000052
:102950000024014000280140003C0140FFFEF0FF40
:10296000FDF7F1FFFFFD3FFF0246002013680B401B
:102970000BB1012000E000207047CA43026070479D
:1029800070B502460020002300240B125568CEB219
:1029900005EA060415681D4015B10CB1012000E0E0
:1029A000002070BD00220A12D3430360704700006C
:1029B00010B50446FE48844208D10121C014FFF737
:1029C00081FB0021E014FFF77DFBC4E0B4F1804FF0
:1029D00008D101210846FFF782FB00210120FFF703
:1029E0007EFBB8E0F348844208D101210220FFF7C2
:1029F00076FB00210220FFF772FBACE0EE48844238
:102A000008D101210420FFF76AFB00210420FFF711
:102A100066FBA0E0E948844208D101210820FFF7C5
:102A20005EFB00210820FFF75AFB94E0E448844253
:102A300008D101211020FFF752FB00211020FFF7E1
:102A40004EFB88E0DF48844208D101212020FFF7B7
:102A500046FB00212020FFF742FB7CE0DA4884425D
:102A600008D101214014FFF72DFB00216014FFF76E
:102A700029FB70E0D548844209D10121C804FFF741
:102A800021FB00214FF40020FFF71CFB63E0D0483E
:102A9000844209D101210805FFF714FB00214FF4FE
:102AA0008010FFF70FFB56E0CA48844209D101218C
:102AB0004805FFF707FB00214FF40010FFF702FB6A
:102AC00049E0C548844208D101214020FFF707FBB7
:102AD00000214020FFF703FB3DE0C048844208D1BD
:102AE00001218020FFF7FBFA00218020FFF7F7FA91
:102AF00031E0BB48844208D101218015FFF7EFFA8D
:102B00000021A015FFF7EBFA25E0B648844209D171
:102B100001210804FFF7D6FA00214FF48030FFF7B7
:102B2000D1FA18E0B048844209D101214804FFF7E6
:102B3000C9FA00214FF40030FFF7C4FA0BE0AB48AC
:102B4000844208D101218804FFF7BCFA00214FF428
:102B50008020FFF7B7FA10BD00220288944B9842FC
:102B60000ED0994B98420BD0B0F1804F08D0914BCA
:102B7000984205D0904B984202D0904B984204D195
:102B80004FF68F731A404B881A438D4B984207D0EB
:102B90008C4B984204D04FF6FF431A40CB881A431F
:102BA00002808B8883850B880385814B98420BD0EC
:102BB000854B984208D08B4B984205D08A4B98425F
:102BC00002D08A4B984201D10B7A0386012383827B
:102BD000704770B5002400220023058C4FF6FE7666
:102BE00035400584028C8388048B4FF68F752C400A
:102BF000B51E2C400D882C43751E2A400D892A4392
:102C00004D882A436A4DA8420BD06F4DA84208D088
:102C1000744DA84205D0744DA84202D0734DA8420D
:102C200013D14FF6F7752A404D892A434FF6FB75AD
:102C30002A408D882A434FF6FF652B404FF6FF55FB
:102C40002B408D892B43CD892B4383800483CD88F2
:102C50008586028470BD70B5002400220023058C97
:102C60004FF6EF7635400584028C8388048B48F656
:102C7000FF752C404FF6FF452C400D884FF6FF7630
:102C800006EA05252C434FF6DF752A400D8906EA32
:102C900005152A434D8806EA05152A43444DA842E6
:102CA00002D0494DA8421DD14FF67F752A404D896B
:102CB0004FF6FF7606EA05152A434FF6BF752A4000
:102CC0008D8806EA05152A434FF6FF352B404FF253
:102CD000FF752B408D8906EA85052B43CD8906EAD1
:102CE00085052B4383800483CD880587028470BDCE
:102CF00070B5002400220023058C4FF6FF66354096
:102D00000584028C8388848B4FF68F752C404FF698
:102D1000FC752C400D882C434FF6FF552A400D8939
:102D20004FF6FF7606EA05252A434D8806EA052573
:102D30002A431F4DA84202D0234DA8421DD14FF275
:102D4000FF752A404D894FF6FF7606EA05252A438E
:102D50004FF6FF352A408D8806EA05252A434EF6B0
:102D6000FF752B404DF6FF752B408D8906EA051542
:102D70002B43CD8906EA05152B4383808483CD88B8
:102D80008587028470BD70B5002200230024058C65
:102D90004EF6FF7635400584038C8488828B48F696
:102DA000FF752A404FF6FF452A400D8820E00000BD
:102DB000002C01400004004000080040000C0040CE
:102DC000001000400014004000340140004C01405D
:102DD000005001400054014000180040001C004019
:102DE00000200040004001400044014000480140F4
:102DF0004FF6FF7606EA05252A434DF6FF752B4070
:102E00000D8906EA05352B434D8806EA05352B4327
:102E1000FA4DA84202D0FA4DA84208D14BF6FF75F0
:102E20002C408D894FF6FF7606EA85152C43848069
:102E30008283CD88A0F84050038470BD828B4FF20E
:102E4000FF331A408283828B4FF6FF7303EA01231C
:102E50001A4382837047F0B50C46154600220021C4
:102E60000026078C4EF6FF7C07EA0C070784828B4E
:102E7000018C4FF6FF7707EA043640F6FF473A40E9
:102E80004FF6FF7707EA05273A434FF6FF7707EA41
:102E900003373A43D94FB8420ED0D94FB8420BD07E
:102EA000B0F1804F08D0D74FB84205D0D64FB842C6
:102EB00002D0D64FB84206D14DF6FF77394046F4DE
:102EC0008057394305E047F6FF57394044F48057AF
:102ED000394382830184F0BD828B4FF6F3731A402D
:102EE0008283828B0A4382837047F0B50C46154675
:102EF000002200210026078C4FF6FF6C07EA0C0722
:102F00000784828B018C4FF6FF7707EA04264FF681
:102F10000C773A404FF6FF7707EA03172F433A43FF
:102F2000B64FB8420ED0B64FB8420BD0B0F1804F7A
:102F300008D0B44FB84205D0B34FB84202D0B34F17
:102F4000B84206D14FF6FF57394046F480773943EF
:102F500005E04FF2FF57394044F4807739438283CC
:102F60000184F0BD028B4FF2FF331A400283028BC3
:102F70004FF6FF7303EA01231A4302837047F0B54B
:102F80000C461546002200210026078C4FF6EF7CE8
:102F900007EA0C070784028B018C4FF6FF7707EADC
:102FA000041640F6FF473A404FF6FF7707EA03372B
:102FB0003A434FF6FF7707EA05273A438F4FB84267
:102FC0000ED08F4FB8420BD0B0F1804F08D08D4F4C
:102FD000B84205D08C4FB84202D08C4FB84206D1CF
:102FE0004FF6DF77394046F01007394305E04FF6DA
:102FF0005F77394044F01007394302830184F0BD04
:10300000028B4FF6F3731A400283028B0A4302834A
:103010007047F0B50C46154600220021068C4FF68D
:10302000FE773E400684028B018C4FF60C763240D0
:103030007E1C06EA03162E433243704EB0420ED079
:103040006F4EB0420BD0B0F1804F08D06D4EB04201
:1030500005D06D4EB04202D06C4EB04206D14FF654
:10306000FD76314044F00106314305E04FF6F57638
:10307000314044F00106314302830184F0BD70B554
:1030800005460C465D4885420ED05D4885420BD012
:10309000B5F1804F08D05B48854205D05A4885423B
:1030A00002D05A48854200D100E000BF208850B9C4
:1030B0002389A28861882846FFF7ABFFE18828466C
:1030C000FFF79EFF25E0208804280AD12389A288E3
:1030D00061882846FFF753FFE1882846FFF742FF43
:1030E00017E0208808280AD12389A2886188284609
:1030F000FFF7FBFEE1882846FFF7EEFE09E0238993
:10310000A28861882846FFF7A6FEE1882846FFF7D7
:1031100095FE70BD2DE9F04105460C4600260127BD
:10312000608808B9022600E00026A088012801D1A5
:10313000022700E001272088A0B92389A28861889E
:103140002846FFF766FFE1882846FFF759FF2389E5
:103150003A4631462846FFF712FFE1882846FFF736
:1031600001FF13E02389A28861882846FFF707FF43
:10317000E1882846FFF7F6FE23893A46314628467D
:10318000FFF747FFE1882846FFF73AFFBDE8F081E7
:103190000A884B881A438B881A43CB881A430B89B9
:1031A0001A434B891A438B891A43A0F8442070476D
:1031B0004FF6FF71818000210180C1804180017242
:1031C00070470021018041808180C180018141815F
:1031D0008181C1817047002101804180012181806E
:1031E0000021C180018170470021018041808180E0
:1031F000C18001814181818170470000002C014024
:10320000003401400004004000080040000C004071
:1032100021B1028842F00102028004E002884FF6E8
:10322000FE731A400280704731B1B0F8442042F476
:103230000042A0F8442005E0B0F84420C2F30E029A
:10324000A0F8442070471AB183890B43838102E0C0
:1032500083898B43838170478182704741EA0203EF
:10326000A0F8483070471AB183890B43838102E08C
:1032700083898B438381704701894FF6F87211402F
:10328000018170470A46002101894FF68F7319406A
:1032900011430181704730B504460D46294620464A
:1032A000FFF7F0FF208940F00700208130BD2DE9B5
:1032B000F04104460D4616461F46602D06D13B469A
:1032C000012231462046FFF75AFE05E03B46012227
:1032D00031462046FFF79DFE29462046FFF7D2FFE4
:1032E000208940F007002081BDE8F08130B50C4610
:1032F00000210189C9B24FF6FF7505EA0325154380
:1033000025432943018130BD2DE9F04105460E4694
:1033100017469846002443463A4631462846FFF76A
:10332000E5FF2C894FF6F870044044F007044FF68F
:103330008F70044044F070042C81BDE8F081F0B53A
:1033400004460D4616461F463B4632462946204651
:10335000FFF7CCFF208940F480402081F0BD01853B
:10336000828270470A46002101884FF68F73194008
:10337000114301807047F0B50C4615461E460021EA
:10338000002200230189028B038C4FF6F877394025
:1033900021434FF6FC473A4040F201173A434FF6BB
:1033A000DD773B404FF6FF7707EA06172F433B4395
:1033B000018102830384F0BD0A460021018B4FF690
:1033C0008F7319401143018370470A460021018B16
:1033D00048F6FF7319404FF6FF7303EA02231943BF
:1033E000018370470A460021818B4FF68F73194085
:1033F0001143818370470A460021818B48F6FF7391
:1034000019404FF6FF7303EA022319438183704783
:1034100021B1028842F08002028004E002884FF667
:103420007F731A400280704721B1828842F0040203
:10343000828004E082884FF6FB731A4082807047D6
:1034400021B1828842F00802828004E082884FF62F
:10345000F7731A408280704721B1828842F00102DE
:10346000828004E082884FF6FE731A4082807047A3
:103470000A460021018B4FF6F7731940114301836F
:1034800070470A460021018B4FF2FF7319404FF637
:10349000FF7303EA02231943018370470A460021A0
:1034A000818B4FF6F77319401143818370470A46A9
:1034B0000021818B4FF2FF7319404FF6FF7303EA2F
:1034C00002231943818370470A460021018B4FF67E
:1034D000FB7319401143018370470A460021018B99
:1034E0004FF6FF3319404FF6FF7303EA02231943E7
:1034F000018370470A460021818B4FF6FB73194008
:103500001143818370470A460021818B4FF6FF33B8
:1035100019404FF6FF7303EA022319438183704772
:103520000A460021018B4FF67F7319401143018336
:1035300070470A460021018BC1F30E014FF6FF735D
:1035400003EA02231943018370470A460021818B55
:103550004FF67F7319401143818370470A4600215B
:10356000818BC1F30E014FF6FF7303EA0223194367
:10357000818370470A460021018C4FF6FD73194084
:103580001143018470470A460021018C4FF6F773FE
:1035900019401143018470470A460021018C4FF6FF
:1035A000DF7319404FF6FF7303EA021319430184D6
:1035B00070470A460021018C4FF67F7319404FF681
:1035C000FF7303EA02131943018470470A4600217E
:1035D000018C4FF6FF5319404FF6FF7303EA0223A5
:1035E0001943018470470A460021018C4FF2FF7392
:1035F00019404FF6FF7303EA022319430184704711
:103600000A460021018C4DF6FF7319404FF6FF73F7
:1036100003EA023319430184704730B500230124C3
:103620008C40A3B2048C9C430484048C02FA01F500
:10363000ADB22C43048430BD30B5002304248C404B
:10364000A3B2048C9C430484048C02FA01F5ADB24D
:103650002C43048430BD70B5034600200024184676
:10366000183001258D40ACB21D8CA5431D8409B1D5
:10367000082909D100EB6100056825F07005056097
:103680000568154305600EE00D1FC5F34E0528447F
:10369000056825F4E045056005684FF6FF7606EA03
:1036A00002263543056070BD21B1028842F0020256
:1036B000028004E002884FF6FD731A4002807047D2
:1036C00021B1028842F00402028004E002884FF631
:1036D000FB731A400280704721B1828842F0800259
:1036E000828004E082884FF67F731A4082807047A0
:1036F00002884FF6F7731A40028002880A4302805C
:10370000704782884FF68F731A40828082880A43FE
:103710008280704702894FF6F8731A40028102894D
:103720000A430281704702894FF67F731A40028173
:1037300002890A43028170478184704781857047FE
:10374000818670470187704781877047A0F84010D5
:10375000704702884FF6FF431A40028002880A43EE
:10376000028070470146888E70470146088F704777
:103770000146888F70470146B1F840007047014606
:10378000888C70470146088D704702460020138AD6
:103790000B400BB1012000E000207047CA430282B9
:1037A000704730B50246002000230024158A05EA40
:1037B0000103958905EA010413B10CB1012000E071
:1037C000002030BDCA430282704770470FB40449DD
:1037D00010B503AA029800F009F810BC5DF814FBBC
:1037E000000200207047704770477047074B70B564
:1037F0000D467B4400F011F80446284600F020F8FE
:1038000010B14FF0FF3070BD204670BDF1DDFFFFFD
:1038100001694A1C02610878704700B58FB0CDE994
:1038200001310021059105497944CDE90310114684
:10383000684600F02EF80FB000BD0000E5FFFFFF66
:10384000007B00F080007047754600F03DF8AE4602
:1038500005006946534620F00700854618B020B59C
:10386000FEF77AF8BDE820404FF000064FF0000761
:103870004FF000084FF0000B21F00701AC46ACE818
:10388000C009ACE8C009ACE8C009ACE8C0098D4685
:1038900070472DE9F04106460024D6E90170F5682D
:1038A0008046304603E04146B847641C3046A8478E
:1038B0000028F8D12046BDE8F0810446AFF300802F
:1038C0002046FCF79CFC0000004870476C03002079
:1038D00021F00042A2F16052B2F5801F01F00043D6
:1038E00028BFD2F17F6C0BD95FEA001C43EAC20209
:1038F00042EB507018BF704728BF20F0010070479E
:10390000B2F5801FBCBF184670474FEA410C1CF54A
:10391000001F02D2084600F0A0BB70B500F0A4F969
:1039200000000089FFF7F6BF4FF00040A0F58000CF
:103930007047000010B591EA030F48BF83F00043C1
:1039400000F12482841A71EB030C05D2121943EBA7
:103950000C03001B61EB0C01DFF824E14FEA11546A
:10396000A4EB135C1EEA430F18BF9EEA445F73D0BA
:1039700023EA0E03DCF1200E21EA045143F4801304
:1039800032D322FA0CFE10EB0E0023FA0CFE41EBB0
:103990000E01CCF1200E03FA0EFE10EB0E0051F1D9
:1039A0000001B1F5801FCCF1200E32D201EB0451A1
:1039B00012FA0EF2BDE8104058BF7047401C38BFE5
:1039C0005FEA420218BF7047002814BF20F00100D0
:1039D00041F100014FEA410313F5001F38BF704762
:1039E000A1F1C04100F08EB9012A43EB0302ACF112
:1039F000200CDCF11F0E32BF4FF0000E23FA0CF347
:103A000010EB030041EB0451B4EB115FD0D0A1EBFC
:103A1000045101F5801149085FEA300001EB0451BF
:103A20000ED350F1000038BF12FA0EFE08D1BDE8E7
:103A30001040C9E7401C38BF5FEA4202CAD1C3E761
:103A4000BDE810404FEA410313F5001F38BF70472F
:103A5000A1F1C04100F056B99EEA445F08D011EAD6
:103A60005E0FBDE8104004BF01F000410020704728
:103A7000BDE8104070B500F0F7F800BF64FBBE3E33
:103A80000000E0FF491058BFC1F140415B1058BF32
:103A9000C3F140438B42EFF30080704751EA030CBF
:103AA00017D41CF5801F58BFBCF5801F00F106809D
:103AB000994218BF704708BF9042704707D711F569
:103AC000801F58BF13F5801F19D49942704789424F
:103AD00070471CF5801F08D5BCF5801FF7D58B42B9
:103AE00018BF704708BF824270474FF4001C1CEBA0
:103AF000410F38BF1CEB430F01D28B42704770B5AA
:103B000000F0B2F8922449004FF000514FF080537A
:103B1000FFF7B8BFDFF848C170B51CEA111E1EBF21
:103B20001CEA13159EEA0C0F95EA0C0F00F06F804B
:103B300081EA030423EA4C134EEAD47E21EA4C11B5
:103B400041F4801143F48013AE44A1FB024CA0FB6E
:103B50000365AEF17F7E361955EB0C05A1FB034CD6
:103B60004CF10003A0FB021C16EB0C06654153F15F
:103B70000003094218BF46F0010613F4007F0BD181
:103B80004FEA03314FEA0530340341EA155140EA68
:103B900016506FF003020AE04FEAC3214FEAC52036
:103BA000F40241EA555140EA56506FF0020202EB2E
:103BB0002E4201EB025585EACE710AD05FEA440C31
:103BC00018BF24F0004450F1000041F1000120EA48
:103BD000D47040F2FE7C624500D270BDA84214BF92
:103BE0004FF080444FF04044002E08BF0024BEF147
:103BF000806FA8BFA1F1C041BDE8704080F2828013
:103C00004FF0000001F1C04101F0004170479EEA11
:103C10000C0F0CEA131518BF95EA0C0F06D04FF0E5
:103C2000000081EA030E0EF0004170BD00F01CF8A8
:103C30008900013E00F007B800F009B84FEA430CD4
:103C40005FEA5C5C08D081EA030100F05BB84FEAF0
:103C5000410C5FEA5C5CF6D14FF00000014970470F
:103C60000000FF070000F87F0EF1020E2EF0030E99
:103C70005EF8046B364205D4012A43EB030515F5C3
:103C8000001F12D8012841EB010C1CF5001F0CD8B5
:103C90000ED14FEAD17C15F5001F0CEB4C0C0CF14A
:103CA000020C08BF4CEBD37C04E04FF0080C01E0A1
:103CB0004FEAD37C0CEB4C0526FA05F606F0070616
:103CC000B6F1040C06D20EEB860CBDE870404CF049
:103CD000010C6047DFE80CF0090B02024FF00041D5
:103CE0004FF00000A1F5002170BD194610460128D3
:103CF00051EB010418BFD4F5001484BF002001F07B
:103D0000004170BD0808A0F500114FEA310170476D
:103D100053EA010C17D41CF5801F58BFBCF5801F57
:103D200000F106808B4218BF704708BF824270477F
:103D300007D713F5801F58BF11F5801F19D48B4288
:103D400070479B4270471CF5801F08D5BCF5801F4B
:103D5000F7D5994218BF704708BF904270474FF49B
:103D6000001C1CEB430F38BF1CEB410F01D29942E2
:103D700070470FB40CBC03BCFFF7C1BE10B591EA8D
:103D8000030F48BF83F000433FF5DCAD841A71EBAD
:103D9000030C07D212198CF0004C43EB0C03001BF0
:103DA00061EB0C01DFF8A4E14FEA1154A4EB135CC2
:103DB0001EEA430F18BF9EEA445F00F0B08023EA7A
:103DC0006E03524221EA0451C3EB6E0338BF5B1EFF
:103DD000DCF1200E25D322FA0CFE10EB0E0043FA84
:103DE0000CFE41EB0E01CCF1200E03FA0EFE10EB9F
:103DF0000E0051F10001CCF1200E29D412FA0EF27E
:103E000001EB0451BDE8104058BF7047401C1CBF77
:103E1000B2F1004F704700280CBF491C20F0010090
:103E2000704712EB020E43EB030218BF4FF0010E76
:103E30004EEA4202ACF1200CDCF11E0E54D943FADA
:103E40000CFE10EB0E0051F1FF31CCF11E0ED5D55A
:103E50000EF1010E12FA0EFE404141EB010101EBA1
:103E6000445C5FEA5C5C10D910EBDE7001EB04513E
:103E700038BFBEF1004FBDE8104018BF70470028A2
:103E80000CBF491C20F00100704730D24FEAD42CFF
:103E900011F5001124F400641BD0B1FA81F20B3A41
:103EA000A41AA41ED2F12003914030FA03F319435F
:103EB000904001EBCC71002C01EB0451BDE81040A7
:103EC000A8BF704701F1C0414FF0000001F0004170
:103ED0007047B0FA80F310FA03F100D110BDE41A74
:103EE000173C4805C90AE4E701EB045110BD49102D
:103EF00001EB0451BDE810404FEA300002E04FF002
:103F0000000170474A0008BF0042F8D0B2F5001F18
:103F100028BF704701F000414FF0000070479EEA53
:103F2000445F07D011EA5E0FBDE8104004BF0021D6
:103F300000207047BDE8104070B5FFF795FE00BF48
:103F400040DFF63E83F00041104670470000E0FF7E
:103F500043004FEAD30C4FEA3C0C43401FBF4007DD
:103F60000CF1605113F0FE4F70471CF0006F03D14D
:103F700000200CF0004170470CF0004343EA507001
:103F800010B540EACC0000F022F800BF000000921B
:103F90004FEA0001FFF7B6BE4FF000414FF00000BE
:103FA000A1F5002170470000B0FA80F310FA03F287
:103FB000C3F19D030AD0D90501EB1220530638BF87
:103FC000704700F1010008BF20F0010070470EF1BA
:103FD000020E2EF0030E5EF8044B244204D44FEA86
:103FE0004102B2F17F4F11D84FEA4003B3F17F4F46
:103FF0000CD80ED14FEAD07CB2F17F4F0CEB4C0CB9
:104000000CF1020C08BF4CEBD17C04E04FF0080C23
:1040100001E04FEAD17C0CEB4C0324FA03F404F0EA
:104020000704B4F1040C06D20EEB840CBDE810407A
:104030004CF0010C6047DFE80CF0070802024FF07B
:104040000040A0F5800010BD0846420018BFD2F124
:10405000807288BF00F0004010BDFF2141EAD050BF
:10406000C00570470000000000000000002F0000A5
:1040700000000700070000147F147F1400242A7F2B
:104080002A120062640813230036495522500000AA
:104090000503000000001C224100000041221C001A
:1040A0000014083E08140008083E0808000000A09C
:1040B0006000000808080808000060600000002098
:1040C00010080402003E5149453E0000427F400076
:1040D000004261514946002141454B3100181412FC
:1040E0007F10002745454539003C4A4949300001C9
:1040F0007109050300364949493600064949291E18
:104100000000363600000000563600000008142279
:104110004100001414141414000041221408000279
:104120000151090600324959513E007C1211127C9E
:10413000007F49494936003E41414122007F4141CB
:10414000221C007F49494941007F09090901003EBD
:104150004149497A007F0808087F0000417F4100FB
:10416000002040413F01007F08142241007F404071
:104170004040007F020C027F007F0408107F003E59
:104180004141413E007F09090906003E4151215E3F
:10419000007F091929460046494949310001017F3C
:1041A0000101003F4040403F001F2040201F003FD2
:1041B0004038403F00631408146300070870080784
:1041C00000615149454300007F41410000552A5597
:1041D0002A55000041417F00000402010204004012
:1041E0004040404000000102040000205454547834
:1041F000007F484444380038444444200038444454
:10420000487F00385454541800087E0901020018F1
:10421000A4A4A47C007F080404780000447D40002E
:10422000004080847D00007F102844000000417F12
:104230004000007C04180478007C080404780038EE
:104240004444443800FC242424180018242418FC76
:10425000007C0804040800485454542000043F44DF
:104260004020003C4040207C001C2040201C003CA2
:104270004030403C004428102844001CA0A0A07CF2
:10428000004464544C44141414141414000000002A
:10429000000000000000000000000000000000F826
:1042A00000000000000000333000000000100C0689
:1042B000100C0600000000000000000040C0784024
:1042C000C0784000043F04043F040400007088FCF0
:1042D00008300000001820FF211E0000F008F00048
:1042E000E018000000211C031E211E0000F00888B9
:1042F000700000001E2123241927211010160E0023
:10430000000000000000000000000000000000E0CD
:1043100018040200000000071820400000020418E2
:10432000E00000000040201807000000404080F03E
:10433000804040000202010F01020200000000F074
:10434000000000000101011F010101000000000048
:104350000000000080B070000000000000000000BD
:104360000000000000010101010101010000000046
:1043700000000000003030000000000000000000DD
:1043800080601804006018060100000000E01008BA
:104390000810E000000F102020100F00001010F88F
:1043A000000000000020203F2020000000700808CE
:1043B000088870000030282422213000003008884E
:1043C000884830000018202020110E000000C02076
:1043D00010F8000000070424243F240000F8088897
:1043E000880808000019212020110E0000E0108824
:1043F00088180000000F112020110E000038080856
:10440000C83808000000003F000000000070880865
:1044100008887000001C222121221C0000E01008E6
:104420000810E0000000312222110F00000000C03F
:10443000C0000000000000303000000000000080DC
:1044400000000000000080600000000000008040CC
:1044500020100800000102040810200040404040E5
:104460004040400004040404040404000008102038
:10447000408000000020100804020100007048087D
:104480000808F0000000003036010000C030C828E5
:10449000E810E0000718272423140B000000C038A0
:1044A000E0000000203C23020227382008F888881A
:1044B00088700000203F202020110E00C030080826
:1044C00008083800071820202010080008F80808FD
:1044D0000810E000203F202020100F0008F88888F6
:1044E000E8081000203F20202320180008F88888C2
:1044F000E8081000203F200003000000C03008083A
:104500000838000007182020221E020008F80800C2
:104510000008F808203F210101213F20000808F889
:10452000080800000020203F2020000000000808AC
:10453000F8080800C08080807F00000008F888C06C
:1045400028180800203F20012638200008F808001D
:1045500000000000203F20202020300008F8F80054
:10456000F8F80800203F003F003F200008F830C066
:104570000008F808203F200007183F00E010080856
:104580000810E0000F10202020100F0008F8080885
:104590000808F000203F210101010000E010080898
:1045A0000810E0000F18242438504F0008F88888BD
:1045B00088887000203F2000030C3020007088089D
:1045C000080838000038202121221C00180808F8AB
:1045D000080818000000203F2000000008F808002C
:1045E0000008F808001F202020201F0008788800FD
:1045F00000C83808000007380E010000F80800F86D
:104600000008F800033C0700073C03000818688016
:104610008068180820302C03032C30200838C8008C
:10462000C83808000000203F2000000010080808DB
:10463000C83808002038262120201800000000FE7D
:10464000020202000000007F40404000000C30C029
:1046500000000000000000010638C0000002020255
:10466000FE000000004040407F0000000000040207
:104670000202040000000000000000000000000032
:104680000000000080808080808080800002020422
:10469000000000000000000000000000000080801A
:1046A000808000000019242222223F2008F8008088
:1046B00080000000003F112020110E00000000804B
:1046C00080800000000E11202020110000000080DA
:1046D0008088F800000E112020103F20000080800C
:1046E00080800000001F222222221300008080F020
:1046F000888888180020203F20200000000080804B
:1047000080808000006B94949493600008F800808F
:1047100080800000203F210000203F2000809898EA
:10472000000000000020203F20200000000000804A
:104730009898000000C08080807F000008F800008A
:1047400080808000203F24022D302000000808F8DF
:10475000000000000020203F20200000808080809A
:1047600080808000203F20003F20003F808000802C
:1047700080800000203F210000203F20000080803A
:1047800080800000001F202020201F0080800080EB
:104790008000000080FFA12020110E00000000809A
:1047A00080808000000E112020A0FF80808080008B
:1047B0008080800020203F212000010000008080B8
:1047C000808080000033242424241900008080E0AD
:1047D000808000000000001F20200000808000007A
:1047E00000808000001F202020103F20808080005B
:1047F0000080808000010E3008060100808000806B
:10480000008080800F300C030C300F00008080008F
:10481000808080000020312E0E31200080808000BA
:104820000080808080818E7018060100008080806A
:10483000808080000021302C222130000000000008
:10484000807C020200000000003F404000000000A9
:10485000FF00000000000000FF0000000002027CDA
:10486000800000000040403F000000000006010101
:104870000202040400000000000000009C48000840
:10488000000000201C0200006C01000878490008AC
:104890001C020020B4070000C80100081184A24ACD
:1048A00004000A270102030406070809011BF0108F
:1048B000012AFF050215F01B0F04012AFF05021350
:1048C0000F18094040405F55555575041A5F0C0993
:1048D0001121080C11200F094989790909090F20B4
:1048E0001F112FFE02424ACA4A0304134202FE006D
:1048F0000E14FF40504C4340404F50505C40FF1B53
:10490000F888012AFF050215F81B1F08012A7F20DD
:104910000B109F80E23B808201000916E2A2928A7E
:1049200086828080041840807F172424A4FEA3225E
:104930001B22CCAA011415080601FF2B0104010556
:1049400011FF0202025808101010FF109008C30255
:104950001108080F150444827F01808040432C1009
:10496000284681A0B12D0102030404180806070897
:084970000902040651000000D9
:0400000508000131BD
:00000001FF
